:020000040800F2
:100000007807002021020008290200082B020008BE
:100010002D0200082F020008310200080000000035
:10002000000000000000000000000000890100083E
:100030003502000800000000CD010008E1070008BB
:100040003B0200083B0200083B0200083B0200089C
:100050003B0200083B0200083B0200083B0200088C
:100060003B0200083B0200083B0200083B0200087C
:100070003B0200083B0200083B0200083B0200086C
:100080003B0200083B0200083B0200083B0200085C
:100090003B0200083B0200083B0200083B0200084C
:1000A0003B0200083B0200083B0200083B0200083C
:1000B0003B0200083B0200083B0200083B0200082C
:1000C0003B0200083B0200083B0200083B0200081C
:1000D0003B020008750800083B0200083B020008CC
:1000E0003B0200083B0200083B02000800F002F857
:1000F00000F03AF80AA090E8000C82448344AAF188
:100100000107DA4501D100F02FF8AFF2090EBAE885
:100110000F0013F0010F18BFFB1A43F0010318473B
:10012000240D0000440D0000103A24BF78C878C1A7
:10013000FAD8520724BF30C830C144BF04680C60ED
:10014000704700000023002400250026103A28BF35
:1001500078C1FBD8520728BF30C148BF0B60704739
:100160001FB51FBD10B510BD00F07DF81146FFF79B
:10017000F7FF00F061FD00F09BF803B4FFF7F2FF1A
:1001800003BC00F0A3F80000224B19680868B0E82F
:10019000F00F80F30988BFF36F8F4FF0000080F3FA
:1001A00011884EF00D0E70470000000006480068F0
:1001B000006880F3088862B661B6BFF34F8FBFF363
:1001C0006F8F00DF00BF00BF08ED00E0EFF3098094
:1001D000BFF36F8F0F4B1A6820E9F00F106008B55E
:1001E0004FF0BF0080F31188BFF34F8FBFF36F8FC5
:1001F00000F060FD4FF0000080F31188BDE808407A
:1002000019680868B0E8F00F80F30988BFF36F8FB2
:10021000704700BF00000020EFF30580704700002A
:100220000948804709480047FEE7FEE7FEE7FEE78A
:10023000FEE7FEE7FEE7FEE7FEE7FEE704480549C6
:10024000054A064B7047000015080008ED0000083D
:100250007801002078070020780300207803002030
:10026000704770477047754600F02CF8AE460500A1
:100270006946534620F00700854618B020B5FFF7C1
:10028000DDFFBDE820404FF000064FF000074FF0C3
:1002900000084FF0000B21F00701AC46ACE8C009A4
:1002A000ACE8C009ACE8C009ACE8C0098D467047AD
:1002B00010B50446AFF300802046BDE81040FFF7BC
:1002C0005CBF000000487047180100200149182059
:1002D000ABBEFEE72600020070472DE9F041024662
:1002E00000250026002000230024002791F803C0E9
:1002F0000CF00F0591F803C00CF0100CBCF1000FCE
:1003000003D091F802C04CEA050591F800C0BCF199
:10031000000F31D0146800202BE04FF0010C0CFAD4
:1003200000F3B1F800C00CEA03069E4220D183001E
:100330004FF00F0C0CFA03F7BC4305FA03FC4CEA30
:10034000040491F803C0BCF1280F06D14FF0010C52
:100350000CFA00FCC2F814C00AE091F803C0BCF12A
:10036000480F05D14FF0010C0CFA00FCC2F810C088
:10037000401C0828D1D31460B1F800C0BCF1FF0FB5
:1003800034DD546800202EE000F1080C4FF0010825
:1003900008FA0CF3B1F800C00CEA03069E4221D122
:1003A00083004FF00F0C0CFA03F7BC4305FA03FC73
:1003B0004CEA040491F803C0BCF1280F05D100F108
:1003C000080C08FA0CF8C2F8148091F803C0BCF1CC
:1003D000480F07D100F1080C4FF0010808FA0CF89B
:1003E000C2F81080401C0828CED35460BDE8F081CC
:1003F00070B5002100230F22C47804B3154C246883
:1004000004F4E064C4F5E064210AC1F10403CA40C5
:10041000447804FA03F184781440214309010E4C16
:100420000678A155047804F01F050124AC40057836
:100430006D11AD0005F1E025C5F8004109E0047833
:1004400004F01F050124AC40044D0678761145F8F0
:10045000264070BD0CED00E000E400E080E100E02B
:1004600029B1064AD2690243044BDA6104E0034A27
:10047000D2698243014BDA617047000000100240EC
:1004800029B1064A12690243044B1A6104E0034A87
:1004900012698243014B1A6170470000001002404C
:1004A00029B1064A92690243044B9A6104E0034A67
:1004B00092698243014B9A6170470000001002402C
:1004C00029B1064AD2680243044BDA6004E0034AC9
:1004D000D2688243014BDA6070470000001002408E
:1004E0000F48006840F001000D4908600846406868
:1004F0000C4908400A494860084600680A49084013
:10050000074908600846006820F480200860084613
:10051000406820F4FE0048604FF41F008860704778
:10052000001002400000FFF8FFFFF6FE30B500218A
:100530000022002400232D4D6D6805F00C0121B12F
:10054000042905D0082923D105E0294D056022E0C2
:10055000274D05601FE0254D6D6805F47012234D91
:100560006D6805F48034022505EB92421CB9214DDB
:10057000554305600BE01D4D6D6805F400351DB158
:100580001C4D5543056002E0194D5543056002E0DE
:10059000174D056000BF00BF144D6D6805F0F001F8
:1005A0000909154D6B5C0568DD4045600F4D6D68B0
:1005B00005F4E061090A104D6B5C4568DD4085601B
:1005C0000A4D6D6805F46051C90A0B4D6B5C4568B6
:1005D000DD40C560054D6D6805F44041890B074D50
:1005E0006B5CC568B5FBF3F5056130BD00100240DA
:1005F00000127A0000093D003C0000204C00002061
:100600000149086070470000000042420149086645
:10061000704700000000424202460020044B586828
:1006200020F47C1042EA01031843014B58607047E4
:100630000010024001460020034A506820F00300E9
:1006400008435060704700000010024021B102884A
:1006500042F04002028004E002884FF6BF731A4065
:100660000280704710B504461148844208D1012128
:100670008014FFF725FF0021A014FFF721FF16E0EB
:100680000C48844208D101210014FFF7F9FE002133
:100690002014FFF7F5FE0AE00748844207D1012144
:1006A000C013FFF7EDFE0021E013FFF7E9FE10BDD8
:1006B0000030014000380040003C004010B50022EE
:1006C000028802F441520B884C8823438C882343D0
:1006D000CC8823430C8923434C8923438C892343AF
:1006E000CC8923431A430280838B4FF2FF7423404B
:1006F00083830B8A038210BD10B500F001F810BD92
:100700000CB50020019000903348006840F4803020
:100710003149086000BF3048006800F400300090A4
:100720000198401C0190009818B90198B0F5A06F8D
:10073000F1D12948006800F4003010B10120009088
:1007400001E0002000900098012843D12348006870
:1007500040F01000214908600846006820F00300BE
:1007600008600846006840F0020008601A484068C7
:10077000194948600846406848600846406840F4A7
:10078000806048600846406820F47C104860084655
:10079000406840F4E81048600846006840F0807007
:1007A000086000BF0C48006800F000700028F9D015
:1007B0000948406820F0030007494860084640683F
:1007C00040F00200486000BF0348406800F00C00A1
:1007D0000828F9D10CBD00000010024000200240A2
:1007E00010B500BFBF2080F31188BFF34F8FBFF358
:1007F0006F8F00BF00F09AFA18B14FF08050044993
:10080000086000BF002080F3118800BF10BD000009
:1008100004ED00E010B51348006840F001001149F4
:10082000086008464068104908400E49486008467C
:1008300000680E4908400B4908600846006820F42B
:10084000802008600846406820F4FE0048604FF4AD
:100850001F008860FFF750FF4FF0006004490860F8
:1008600010BD0000001002400000FFF8FFFFF6FE80
:1008700008ED00E010B5322440F22771074800F07F
:1008800028F850B100BF8021044800F015F8002876
:10089000F9D02146014800F0D7F810BD00380140DA
:1008A00021B1828942F40052828104E082894DF6AE
:1008B000FF731A408281704702460020B1F5007F25
:1008C00000D100BF13880B400BB1012000E00020D5
:1008D000704770B50246002400230025002040F632
:1008E0006A16B14200D100BFC1F3421501F01F03E7
:1008F000012606FA03F3012D02D19689334006E062
:10090000022D02D1168A334001E0968A33400C1240
:10091000012606FA04F41688344013B10CB1012004
:1009200000E0002070BDF0B503460024002600253D
:10093000002040F66A17B94200D100BF1846C1F343
:10094000421401F01F06012707FA06F5012C01D118
:100950000C3004E0022C01D1103000E014301AB148
:1009600007682F43076002E00768AF430760F0BDE8
:100970002DE9F04786B005460E460024A24600BF8A
:10098000A1460027B08900B100BF2F462C8A4CF643
:10099000FF700440F08804432C82AC894EF6F310BB
:1009A0000440B08831890843718908430443AC810D
:1009B000AC8A4FF6FF400440B0890443AC8201A8E2
:1009C000FFF7B4FD1F48874202D1DDF810A001E017
:1009D000DDF80CA0A88900F4004040B10AEBCA0081
:1009E00000EB0A1031684900B0FBF1F807E00AEBB0
:1009F000CA0000EB0A1031688900B0FBF1F86420EE
:100A0000B8FBF0F004012009642101FB1089A889DA
:100A100000F4004040B1322000EBC900B0FBF1F01F
:100A200000F00700044308E0322000EB09106421C5
:100A3000B0FBF1F000F00F0004432C8106B0BDE8DC
:100A4000F087000000380140C1F30802828070473F
:100A500000B593B0FFF744FD0120FFF7D1FD002062
:100A6000FFF7E8FD4FF400210020FFF7D5FD01203E
:100A7000FFF7CCFD01210420FFF712FD0121082022
:100A8000FFF70EFD01211020FFF70AFD10208DF861
:100A90004B008020ADF8480002208DF84A0012A9D2
:100AA0005F48FFF71AFC5F48FFF7DCFD4FF430406A
:100AB000ADF8440018208DF8470002208DF846005C
:100AC00011A95948FFF709FC01210803FFF7E8FCC9
:100AD0002820ADF83C000020ADF838000220ADF829
:100AE00036000720ADF840000020ADF83400ADF826
:100AF0003000ADF83E004FF48270ADF832004FF494
:100B00000070ADF83A000CA94648FFF7D7FD012167
:100B10004448FFF79BFD4548FFF7A4FD01218803EA
:100B2000FFF79EFC2820ADF828000020ADF8240037
:100B30000220ADF822000720ADF82C000020ADF80F
:100B40002000ADF81C00ADF82A004FF48270ADF81B
:100B50001E004FF40070ADF8260007A93148FFF7DA
:100B6000ADFD01213148FFF771FD25208DF81800FA
:100B700000208DF819008DF81A0001208DF81B0057
:100B800006A8FFF735FC01218803FFF789FC4FF425
:100B90000070ADF8140018208DF8170003208DF8B0
:100BA000160005A92248FFF798FB4FF48060ADF8C6
:100BB000140004208DF8170005A91D48FFF78DFBD0
:100BC0004FF4165001900020ADF810000C20ADF845
:100BD0000E000020ADF80C004FF40050ADF80A00F4
:100BE0000020ADF8080001A91248FFF7C1FE01225C
:100BF00040F227710F48FFF796FE01210D48FFF7DD
:100C00004FFE252000F01F02012191404209920071
:100C100002F1E022C2F8001100BF13B000BD0000D5
:100C20000010014000300140000C0140003800403D
:100C30000008014000380140FFF70AFF00BFFEE74F
:100C40000A490968096809B9012100E0002121B1B8
:100C50004FF0FF31064A116006E004490968C9688F
:100C6000C868034A41681160704700000400002012
:100C70003000002001460A69D1E901309860D1E9CD
:100C8000010358605068884201D188685060002094
:100C900008611068401E10601068704742684A6022
:100CA00093688B60936859609160086103685B1C6E
:100CB000036070471848006818B1012017490860A0
:100CC00028E00020154908601548016800E0491E29
:100CD00001EB8100134A52F8200008B9012000E01E
:100CE00000200028F3D101EB81020E4B03EB8200C0
:100CF00042685268426000F108024368934202D1A0
:100D00004268526842604268D268074B1A600448E1
:100D1000016000BF70470000380000202400002060
:100D20001800002050000020000000202DE9F041B4
:100D3000002739480068002862D138480068451CFF
:100D4000364805608DB93648D0F8008035480068CF
:100D5000334908603348C0F8008033480068401CBD
:100D600031490860FFF76CFF00BF304800688542DA
:100D70003AD300BF2A480068006808B9012000E0A3
:100D8000002020B14FF0FF30284908602BE02448B4
:100D90000068C068C4686668B54202D2234806602D
:100DA00021E0201DFFF766FFA06A18B104F11800CA
:100DB000FFF760FF1E49E06A0968884202D91C49B2
:100DC000E06A0860E16A01EB81011A4A02EB8100E6
:100DD000211DFFF763FF1849E06A0968C96A884264
:100DE000C8D30127C6E700BF13480068C06A00EBFC
:100DF0008000104951F82000012800D9012704E0A3
:100E00000E480068401C0D4908600D48006800B19C
:100E100001273846BDE8F08138000020140000208A
:100E200004000020080000202800002030000020DE
:100E300018000020500000200000002020000020AA
:100E400024000020640E0008000000205000000074
:100E500028010008B40E00085000002028070000F8
:100E60004401000800000000000000000000000035
:100E70000000000000000000000000000000000072
:100E80000000000000000000000000000000000062
:100E90000000000000000000000000000000000052
:100EA0000000000001020304010203040607080910
:040EB000020406082A
:0400000508000221CC
:00000001FF
