:020000040800F2
:10000000881F002021020008290200082B02000896
:100010002D0200082F020008310200080000000035
:10002000000000000000000000000000890100083E
:100030003502000800000000CD0100085907000843
:100040003B0200083B0200083B0200083B0200089C
:100050003B0200083B0200083B0200083B0200088C
:100060003B0200083B0200083B0200083B0200087C
:100070003B0200083B0200083B0200083B0200086C
:100080003B0200083B0200083B0200083B0200085C
:100090003B0200083B0200083B0200083B0200084C
:1000A0003B0200083B0200083B0200083B0200083C
:1000B0003B0200083B0200083B0200083B0200082C
:1000C0003B0200083B0200083B0200083B0200081C
:1000D0003B0200083B0200083B0200083B0200080C
:1000E0003B0200083B0200083B02000800F002F857
:1000F00000F03AF80AA090E8000C82448344AAF188
:100100000107DA4501D100F02FF8AFF2090EBAE885
:100110000F0013F0010F18BFFB1A43F0010318473B
:100120000818000028180000103A24BF78C878C1C9
:10013000FAD8520724BF30C830C144BF04680C60ED
:10014000704700000023002400250026103A28BF35
:1001500078C1FBD8520728BF30C148BF0B60704739
:100160001FB51FBD10B510BD00F0F4F81146FFF724
:10017000F7FF00F0E9FB00F012F903B4FFF7F2FF1C
:1001800003BC00F019F90000224B19680868B0E8B8
:10019000F00F80F30988BFF36F8F4FF0000080F3FA
:1001A00011884EF00D0E70470000000006480068F0
:1001B000006880F3088862B661B6BFF34F8FBFF363
:1001C0006F8F00DF00BF00BF08ED00E0EFF3098094
:1001D000BFF36F8F0F4B1A6820E9F00F106008B55E
:1001E0004FF0BF0080F31188BFF34F8FBFF36F8FC5
:1001F00001F03AF84FF0000080F31188BDE80840A4
:1002000019680868B0E8F00F80F30988BFF36F8FB2
:10021000704700BF0C000020EFF30580704700001E
:100220000948804709480047FEE7FEE7FEE7FEE78A
:10023000FEE7FEE7FEE7FEE7FEE7FEE704480549C6
:10024000054A064B704700008D070008ED000008C6
:1002500088190020881F0020881B0020881B002090
:10026000032A40F2308010F0030C00F0158011F8E2
:10027000013BBCF1020F624498BF11F801CB00F8BA
:10028000013B38BF11F8013BA2F1040298BF00F80E
:1002900001CB38BF00F8013B11F0030300F02880C8
:1002A000083AC0F0088051F8043B083A51F804CBF2
:1002B000A0E80810F5E7121D5CBF51F8043B40F8B8
:1002C000043BAFF30080D20724BF11F8013B11F8C3
:1002D00001CB48BF11F8012B24BF00F8013B00F807
:1002E00001CB48BF00F8012B70477047704770473B
:1002F00010B5203AC0F00B80B1E81850203AA0E8C1
:100300001850B1E81850A0E81850BFF4F5AF5FEAF4
:10031000027C24BFB1E81850A0E8185044BF18C9A7
:1003200018C0BDE810405FEA827C24BF51F8043B4E
:1003300040F8043B08BF7047D20728BF31F8023BA2
:1003400048BF11F8012B28BF20F8023B48BF00F836
:10035000012B7047754600F02BF8AE460500694644
:10036000534620F00700854618B020B5FFF766FF1A
:10037000BDE820404FF000064FF000074FF00008A6
:100380004FF0000B21F00701AC46ACE8C009ACE827
:10039000C009ACE8C009ACE8C0098D46704710B58B
:1003A0000446AFF300802046BDE81040FFF7E5BEED
:1003B000004870472819002001491820ABBEFEE70D
:1003C0002600020070472DE9F04102460025002674
:1003D000002000230024002791F803C00CF00F0533
:1003E00091F803C00CF0100CBCF1000F03D091F891
:1003F00002C04CEA050591F800C0BCF1000F31D0F5
:10040000146800202BE04FF0010C0CFA00F3B1F857
:1004100000C00CEA03069E4220D183004FF00F0C6F
:100420000CFA03F7BC4305FA03FC4CEA040491F808
:1004300003C0BCF1280F06D14FF0010C0CFA00FCF0
:10044000C2F814C00AE091F803C0BCF1480F05D10E
:100450004FF0010C0CFA00FCC2F810C0401C082838
:10046000D1D31460B1F800C0BCF1FF0F34DD546883
:1004700000202EE000F1080C4FF0010808FA0CF300
:10048000B1F800C00CEA03069E4221D183004FF070
:100490000F0C0CFA03F7BC4305FA03FC4CEA040406
:1004A00091F803C0BCF1280F05D100F1080C08FA3F
:1004B0000CF8C2F8148091F803C0BCF1480F07D1C2
:1004C00000F1080C4FF0010808FA0CF8C2F810808F
:1004D000401C0828CED35460BDE8F08141617047CC
:1004E0000161704729B1064A92690243044B9A613F
:1004F00004E0034A92698243014B9A61704700000D
:10050000001002400F48006840F001000D490860EB
:10051000084640680C4908400A4948600846006897
:100520000A490840074908600846006820F480200E
:1005300008600846406820F4FE0048604FF41F0041
:1005400088607047001002400000FFF8FFFFF6FED1
:1005500030B500210022002400232D4D6D6805F0E8
:100560000C0121B1042905D0082923D105E0294D2A
:10057000056022E0274D05601FE0254D6D6805F4FC
:100580007012234D6D6805F48034022505EB92420C
:100590001CB9214D554305600BE01D4D6D6805F4F8
:1005A00000351DB11C4D5543056002E0194D554302
:1005B000056002E0174D056000BF00BF144D6D6877
:1005C00005F0F0010909154D6B5C0568DD404560DB
:1005D0000F4D6D6805F4E061090A104D6B5C4568CC
:1005E000DD4085600A4D6D6805F46051C90A0B4D08
:1005F0006B5C4568DD40C560054D6D6805F44041A4
:10060000890B074D6B5CC568B5FBF3F5056130BD23
:100610000010024000127A0000093D004C0000204A
:100620005C00002001490860704700000000424261
:10063000014908667047000000004242024600205F
:10064000044B586820F47C1042EA01031843014B24
:10065000586070470010024001460020034A50686D
:1006600020F0030008435060704700000010024073
:1006700010B500F001F810BD0CB5002001900090FD
:100680003348006840F480303149086000BF30488A
:10069000006800F4003000900198401C0190009820
:1006A00018B90198B0F5A06FF1D12948006800F49D
:1006B000003010B10120009001E00020009000986F
:1006C000012843D12348006840F010002149086008
:1006D0000846006820F0030008600846006840F003
:1006E000020008601A484068194948600846406896
:1006F00048600846406840F48060486008464068AA
:1007000020F47C1048600846406840F4E8104860D7
:100710000846006840F08070086000BF0C48006820
:1007200000F000700028F9D00948406820F003006C
:10073000074948600846406840F00200486000BF32
:100740000348406800F00C000828F9D10CBD0000F7
:10075000001002400020024010B500BFBF2080F30F
:100760001188BFF34F8FBFF36F8F00BF00F09CFF66
:1007700018B14FF080500449086000BF002080F39A
:10078000118800BF10BD000004ED00E010B5134853
:10079000006840F0010011490860084640681049AF
:1007A00008400E494860084600680E4908400B4959
:1007B00008600846006820F4802008600846406809
:1007C00020F4FE0048604FF41F008860FFF750FFE0
:1007D0004FF000600449086010BD000000100240A6
:1007E0000000FFF8FFFFF6FE08ED00E021B182896E
:1007F00042F40052828104E082894DF6FF731A4070
:100800008281704702460020B1F5007F00D100BF11
:1008100013880B400BB1012000E000207047F0B5B9
:100820000346002400260025002040F66A17B9423E
:1008300000D100BF1846C1F3421401F01F06012782
:1008400007FA06F5012C01D10C3004E0022C01D18D
:10085000103000E014301AB107682F43076002E03F
:100860000768AF430760F0BD2DE9F04786B0054645
:100870000E460024A24600BFA1460027B08900B161
:1008800000BF2F462C8A4CF6FF700440F0880443CA
:100890002C82AC894EF6F3100440B08831890843AD
:1008A000718908430443AC81AC8A4FF6FF40044091
:1008B000B0890443AC8201A8FFF74AFE1F48874273
:1008C00002D1DDF810A001E0DDF80CA0A88900F449
:1008D000004040B10AEBCA0000EB0A103168490041
:1008E000B0FBF1F807E00AEBCA0000EB0A10316830
:1008F0008900B0FBF1F86420B8FBF0F00401200996
:10090000642101FB1089A88900F4004040B1322025
:1009100000EBC900B0FBF1F000F00700044308E071
:10092000322000EB09106421B0FBF1F000F00F0061
:1009300004432C8106B0BDE8F08700000038014078
:10094000C1F30802828070470EB5002201210846DB
:1009500000F0E0FC1149086002A8012100232022D8
:10096000CDE900100EA1144800F06EFE02A801218E
:1009700000232022CDE9001010A1164800F064FEEB
:1009800002A8012100232022CDE9001012A119485C
:1009900000F05AFE00F02EFC00BFFEE748000020E9
:1009A000496E697469616C697A6174696F6E5F64BC
:1009B00065766963650000001910000853656E6470
:1009C0002061206D65737361676520746F205553D6
:1009D00041525400B1110008526563696576652083
:1009E00061206D65737361676520746F2055534195
:1009F00052540000751100082DE9F04105460E46DD
:100A00001648076816480068001D00F069FA681C5F
:100A100038B936B112480168091D124800F0A7FA2A
:100A20001AE07C190E4800684460BC4207D20C48AA
:100A30000168091D0C48006800F07FFA0CE00848C6
:100A40000168091D0948006800F077FA0848006845
:100A5000844201D206480460BDE8F08120000020F5
:100A60000C000020141900201400002010000020A9
:100A70003C00002010B5044600F086FA22480068C9
:100A8000401C214908602148006840B91F480460A3
:100A90000846006801280DD100F024F90AE01C483E
:100AA000006838B919480068C06AE16A884201D80C
:100AB0001648046017480068401C1649086016492B
:100AC000E06A0968884202D91349E06A0860E16A6D
:100AD00001EB8101114A02EB8100211D00F047FA70
:100AE00000F064FA0A48006868B108480068C06A03
:100AF000E16A884207D24FF0805009490860BFF38D
:100B00004F8FBFF36F8F10BD1C0000200C00002022
:100B10002800002038000020240000206018002059
:100B200004ED00E010B516E000F02EFA0C48C068A5
:100B3000C468201D00F0D4F90A480068401E094925
:100B4000086009480068401E0749086000F02EFA56
:100B5000204600F055F8044800680028E4D110BD94
:100B6000001900201C0000201800002070B5044669
:100B70000D46206C70B1216CE0680144E160D4E95D
:100B80000210884201D32168E1602846226CE168A6
:100B9000FFF766FB70BD2DE9F04104460F46154690
:100BA0004FF00008A66B206C28B37DB93946226C43
:100BB0006068FFF755FB216C606808446060D4E909
:100BC0000101884217D32068606014E03946226C26
:100BD000E068FFF745FB216CE068411AE16021689D
:100BE000E068884203D2216CA068411AE160022DBE
:100BF00001D106B1761E701CA0634046BDE8F081AD
:100C000010B50446206B00F0E1F9204600F0DEF953
:100C100010BD000000BFFFF785FF064800680128EF
:100C2000F9D94FF0805004490860BFF34F8FBFF3EC
:100C30006F8FF0E76018002004ED00E02DE9F0412F
:100C400006460D4617469846069C0DB9246000E0FE
:100C50002760E66325640121204600F079FBBDE8AA
:100C6000F0812DE9FF5F80460E469146DDE90E7A60
:100C7000109CA9F10100216B01EB800B2BF0070BFD
:100C8000002507E0715D04F134004155705D00B945
:100C900002E06D1C102DF5D300BF0021432001554B
:100CA000052F00D30427E762201D00F043F904F16B
:100CB000180000F03FF92461C7F10500A0616462EB
:100CC0000020606484F8480041465846039A00F0CA
:100CD000F5F82060BAF1000F01D0CAF80040BDE875
:100CE000FF9F000010B5002407E004EB84010F4AC9
:100CF00002EB810000F011F9641C052CF5D30C48BF
:100D000000F00BF90B4800F008F90B4800F005F96A
:100D10000A4800F002F90A4800F0FFF804480949BF
:100D2000086004480849086010BD000060180020F1
:100D3000C4180020D8180020EC180020001900204A
:100D400014190020100000201400002070B5054682
:100D500000F01AF9A86B08B9012400E0002400F0A3
:100D600025F9204670BD70B5054600F00DF9A86B59
:100D7000E96B884201D1012400E0002400F016F95B
:100D8000204670BD0A490968096809B9012100E0D7
:100D9000002121B14FF0FF31064A116006E00449FD
:100DA0000968C968C868034A416811607047000053
:100DB000100000203C00002000BFBF2080F31188FD
:100DC000BFF34F8FBFF36F8F00BF00BFFEE770B55B
:100DD000044600F0D9F894F9455010E0606A08B96B
:100DE000012000E0002038B904F1240000F0E8FC04
:100DF00018B100F0A9F900E003E0681E45B2002D2B
:100E0000ECDC00BFFF2084F8450000F0CFF800F0D4
:100E1000BBF894F9445010E0206908B9012000E0C3
:100E2000002048B904F1100000F0CAFC08B100F03D
:100E30008BF9681E45B200E001E0002DECDC00BF3C
:100E4000FF2084F8440000F0B1F870BD70B504468E
:100E5000002504F0070020B104F00700C0F10800ED
:100E6000044400F0F9F91248006820B9114820F054
:100E700007000F49086010480068204441F2F871EB
:100E8000884210D20C48006820440B490968884207
:100E900009D90748006808490968451806480068E4
:100EA00020440549086000F0CBFC284670BD0000D6
:100EB000040000206800002000000020001F4FF008
:100EC00080730360001F21F001030360001F034BC8
:100ED000036014380260203870470000B90D000824
:100EE00001460A69D1E901309860D1E901035860EF
:100EF0005068884201D188685060002008611068FD
:100F0000401E10601068704770B5044600F03CF851
:100F1000A56B00F04BF8284670BD00F10801416058
:100F20004FF0FF31816000F10801C16001610021D3
:100F30000160704700210161704710B502460B68DF
:100F40005C1C0CB9106907E002F1080000E0406881
:100F5000446824689C42FAD944684C604C68A1609B
:100F6000886041600A611468641C146010BD4268A6
:100F70004A6093688B609368596091600861036868
:100F80005B1C03607047000000BFBF2080F3118826
:100F9000BFF34F8FBFF36F8F00BF03480068401C43
:100FA00001490860704700000800002006480068FA
:100FB000401E054908600846006820B9002080F3FB
:100FC000118800BF00BF7047080000207047002054
:100FD0004FF0E0210861886141F63F7048610720C9
:100FE0000861704770B50446002544B100F034F93B
:100FF00000212046FFF700FD00F022FC05463DB928
:101000004FF0805003490860BFF34F8FBFF36F8FDD
:1010100070BD000004ED00E086B0FFF773FA012018
:10102000FFF700FB0020FFF717FB4FF40021002023
:10103000FFF704FB0120FFF7FBFA01210420FFF773
:1010400051FA01210820FFF74DFA01211020FFF786
:1010500049FA10208DF817008020ADF81400022006
:101060008DF8160005A92F48FFF7ADF90121880377
:10107000FFF738FA4FF40070ADF8100018208DF823
:10108000130003208DF8120004A92748FFF79BF9ED
:101090004FF48060ADF8100004208DF8130004A90F
:1010A0002148FFF790F94FF4165000900020ADF85A
:1010B0000C000C20ADF80A000020ADF808004FF439
:1010C0000050ADF806000020ADF80400694617484E
:1010D000FFF7CAFB012240F227711448FFF79FFB7C
:1010E00001211248FFF782FB80210E48FFF7F6F935
:1010F0004FF47A70FFF776FF80210A48FFF7F0F986
:101100004FF47A70FFF76EFF80210648FFF7E6F98B
:101110004FF47A70FFF766FF80210248FFF7E0F98D
:1011200000BFFEE700100140000801400038014008
:10113000034909680160034909684160704700007C
:101140003400002020000020012001490860704781
:101150003000002070B505460C460548016818317E
:101160002846FFF7EAFE01212046FFF745FC70BD47
:101170000C00002008B50020009013E09DF800004E
:10118000401CC0B2009000231A4669460648006819
:1011900000F01EF94FF0805004490860BFF34F8FF4
:1011A000BFF36F8FEAE700004800002004ED00E085
:1011B00008B500BF18E00D480068FFF7A5FE6422DF
:1011C00069460A48006800F08FF90446012C0BD1EB
:1011D00000BF80210648FFF715FB0028F9D09DF8D5
:1011E00000100348FFF7ACFBE5E7000048000020D3
:1011F000003801401CB5114800210B462022CDE9E2
:1012000000100FA1104800F01FFA0446012C14D161
:1012100000BFBF2080F31188BFF34F8FBFF36F8FE4
:1012200000BF4FF0FF3009490860012008490860FD
:1012300000200849086000F053F81CBD4000002061
:1012400049444C4500000000150C00083C000020FB
:10125000280000202000002002480068401C0149AE
:1012600008607047440000201848006818B1012049
:101270001749086028E000201549086015480168F2
:1012800000E0491E01EB8100134A52F8200008B922
:10129000012000E000200028F3D101EB81020E4B79
:1012A00003EB820042685268426000F10802436822
:1012B000934202D14268526842604268D268074B4A
:1012C0001A600448016000BF70470000440000201D
:1012D0003000002024000020601800200C000020B6
:1012E00010B50A48006840F47F00084908600846C5
:1012F000006840F07F400860FFF769FE0020044965
:101300000860FEF753FF002010BD000020ED00E054
:10131000080000202DE9F84307460D4690460DB918
:10132000002601E007FB05F606F14800FFF78EFDF9
:1013300004464CB1A14609F1480943464A462946AC
:1013400038460094FFF77AFC2046BDE8F883000099
:1013500070B505460E462C46FFF716FED4E90F126F
:10136000206801FB0200A0600020A063206860608C
:10137000E06B401E226C216800FB0211E160FF203F
:1013800084F8440084F845009EB9206908B901201A
:1013900000E00020A8B904F1100000F011FA80B1BB
:1013A0004FF0805009490860BFF34F8FBFF36F8F34
:1013B00007E004F11000FFF7B0FD04F12400FFF78F
:1013C000ACFDFFF7F3FD012070BD000004ED00E06F
:1013D0002DE9FF4383B0074688461D464FF00009BC
:1013E0003C4600BFFFF7D0FDA06BE16B884201D304
:1013F000022D28D12A4641462046FFF7CCFB06465F
:10140000606A08B9012000E0002068B904F12400F6
:1014100000F0D6F988B14FF0805032490860BFF330
:101420004F8FBFF36F8F08E03EB14FF080502D49D2
:101430000860BFF34F8FBFF36F8FFFF7B7FD012039
:1014400007B0BDE8F083059818B9FFF7AFFD00209D
:10145000F6E7B9F1000F04D101A8FFF769FE4FF0DC
:101460000109FFF7A3FDFFF7F7FEFFF78DFD94F9E4
:101470004400401C10B9002084F8440094F9450051
:10148000401C10B9002084F84500FFF78FFD05A926
:1014900001A800F0ABF8F0B92046FFF764FCA0B15A
:1014A00004F110000599FFF755FE2046FFF78FFC69
:1014B00000F0C6F9002895D14FF080500949086026
:1014C000BFF34F8FBFF36F8F8CE72046FFF77FFC92
:1014D00000F0B6F986E72046FFF779FC00F0B0F996
:1014E0000020ADE704ED00E02DE9F74183B00546AB
:1014F0000F464FF000082C4600BFFFF745FDA66BD6
:10150000F6B139462046FFF731FB701EA063206913
:1015100008B9012000E0002060B904F1100000F0DB
:101520004FF938B14FF080502F490860BFF34F8F0B
:10153000BFF36F8FFFF73AFD012006B0BDE8F081E1
:10154000059818B9FFF732FD0020F6E7B8F1000F53
:1015500004D101A8FFF7ECFD4FF00108FFF726FDCD
:10156000FFF77AFEFFF710FD94F94400401C10B914
:10157000002084F8440094F94500401C10B9002074
:1015800084F84500FFF712FD05A901A800F02EF828
:10159000F0B92046FFF7DAFBA0B104F12400059969
:1015A000FFF7D8FD2046FFF712FC00F049F90028AC
:1015B000A3D14FF080500C490860BFF34F8FBFF3A9
:1015C0006F8F9AE72046FFF702FC00F039F994E7A5
:1015D0002046FFF7FCFB00F033F92046FFF7B6FB8F
:1015E00000288AD00020A8E704ED00E070B5064688
:1015F0000C46FFF7C9FC124802687068131A20688D
:10160000401C08B9002517E00E4930680968884277
:1016100004D07068904201D801250DE020689842FE
:1016200007D92068C01A20603046FFF781FD0025E9
:1016300002E0002020600125FFF7B8FC284670BDBD
:1016400020000020340000202DE9FF4F85B08046A7
:1016500089461746DDE912ABB800FFF7F7FB0646EF
:1016600056B14C20FFF7F2FB04460CB1266304E0B0
:101670003046FFF7ABFC00E000247CB10020CDE950
:1016800000ABCDE902403A4649464046089BFFF789
:10169000E8FA2046FFF7EEF9012501E04FF0FF35AB
:1016A000284609B0BDE8F08F2DE9F0410027394800
:1016B0000068002862D138480068451C364805603B
:1016C0008DB93648D0F80080354800683349086045
:1016D0003348C0F8008033480068401C3149086036
:1016E000FFF750FB00BF3048006885423AD300BF87
:1016F0002A480068006808B9012000E0002020B1F5
:101700004FF0FF30284908602BE024480068C0688B
:10171000C4686668B54202D22348066021E0201DF5
:10172000FFF7DEFBA06A18B104F11800FFF7D8FB41
:101730001E49E06A0968884202D91C49E06A0860CB
:10174000E16A01EB81011A4A02EB8100211DFFF7DA
:101750000EFC1849E06A0968C96A8842C8D30127A3
:10176000C6E700BF13480068C06A00EB800010495C
:1017700051F82000012800D9012704E00E48006834
:10178000401C0D4908600D48006800B1012738462B
:10179000BDE8F0814400002020000020100000205F
:1017A00014000020340000203C0000202400002011
:1017B000601800200C0000202C00002030000020C9
:1017C00070B50646F068C46804F11800FFF788FB9E
:1017D00015480068A0B9201DFFF782FB1349E06A95
:1017E0000968884202D91149E06A0860E16A01EBA0
:1017F00081010F4A02EB8100211DFFF7B8FB04E0D5
:1018000004F118010B48FFF7B2FB0B49E06A0968C5
:10181000C96A884204D9012501200849086000E00E
:101820000025284670BD0000440000202400002050
:1018300060180020EC1800200C0000203000002070
:1018400070B500240026FFF79FFB2E480068401E5D
:101850002C4908600846006800284ED12A480068D4
:1018600000284AD023E02948C068C46804F1180061
:10187000FFF736FB201DFFF733FB2549E06A0968B7
:10188000884202D92249E06A0860E16A01EB8101DD
:10189000204A02EB8100211DFFF769FB1E49E06A27
:1018A0000968C96A884202D301201C4908601748A8
:1018B000006808B9012000E000200028D3D00CB156
:1018C000FFF760FA1648056865B100BFFFF7ECFE48
:1018D00010B10120114908606D1E002DF6D10020C5
:1018E0000F4908600D48006838B1012630070D49DE
:1018F0000860BFF34F8FBFF36F8FFFF757FB304682
:1019000070BD0000440000201C000020EC180020E6
:1019100024000020601800200C000020300000206F
:101920002C00002004ED00E0481900080000002011
:101930006000000028010008A819000860000020CD
:10194000281F000044010008000000000000000003
:10195000AAAAAAAA000000000000000000000000DF
:101960000000000000000000000000000000000077
:101970000000000000000000000000000000000067
:101980000000000000000000000000000000000057
:101990000000000000000000010203040102030433
:0819A00006070809020406080D
:0400000508000221CC
:00000001FF
