:020000040800F2
:10000000881F002021020008290200082B02000896
:100010002D0200082F020008310200080000000035
:10002000000000000000000000000000890100083E
:100030003502000800000000CD010008E1070008BB
:100040003B0200083B0200083B0200083B0200089C
:100050003B0200083B0200083B0200083B0200088C
:100060003B0200083B0200083B0200083B0200087C
:100070003B0200083B0200083B0200083B0200086C
:100080003B0200083B0200083B0200083B0200085C
:100090003B0200083B0200083B0200083B0200084C
:1000A0003B0200083B0200083B0200083B0200083C
:1000B0003B0200083B0200083B0200083B0200082C
:1000C0003B0200083B0200083B0200083B0200081C
:1000D0003B0200083B0200083B0200083B0200080C
:1000E0003B0200083B0200083B02000800F002F857
:1000F00000F03AF80AA090E8000C82448344AAF188
:100100000107DA4501D100F02FF8AFF2090EBAE885
:100110000F0013F0010F18BFFB1A43F0010318473B
:10012000B8120000D8120000103A24BF78C878C175
:10013000FAD8520724BF30C830C144BF04680C60ED
:10014000704700000023002400250026103A28BF35
:1001500078C1FBD8520728BF30C148BF0B60704739
:100160001FB51FBD10B510BD00F07DF81146FFF79B
:10017000F7FF00F049FD00F09BF803B4FFF7F2FF32
:1001800003BC00F0A3F80000224B19680868B0E82F
:10019000F00F80F30988BFF36F8F4FF0000080F3FA
:1001A00011884EF00D0E70470000000006480068F0
:1001B000006880F3088862B661B6BFF34F8FBFF363
:1001C0006F8F00DF00BF00BF08ED00E0EFF3098094
:1001D000BFF36F8F0F4B1A6820E9F00F106008B55E
:1001E0004FF0BF0080F31188BFF34F8FBFF36F8FC5
:1001F00000F06CFF4FF0000080F31188BDE808406C
:1002000019680868B0E8F00F80F30988BFF36F8FB2
:10021000704700BF0C000020EFF30580704700001E
:100220000948804709480047FEE7FEE7FEE7FEE78A
:10023000FEE7FEE7FEE7FEE7FEE7FEE704480549C6
:10024000054A064B7047000015080008ED0000083D
:1002500088190020881F0020881B0020881B002090
:10026000704770477047754600F02CF8AE460500A1
:100270006946534620F00700854618B020B5FFF7C1
:10028000DDFFBDE820404FF000064FF000074FF0C3
:1002900000084FF0000B21F00701AC46ACE8C009A4
:1002A000ACE8C009ACE8C009ACE8C0098D467047AD
:1002B00010B50446AFF300802046BDE81040FFF7BC
:1002C0005CBF000000487047241900200149182035
:1002D000ABBEFEE72600020070472DE9F041024662
:1002E00000250026002000230024002791F803C0E9
:1002F0000CF00F0591F803C00CF0100CBCF1000FCE
:1003000003D091F802C04CEA050591F800C0BCF199
:10031000000F31D0146800202BE04FF0010C0CFAD4
:1003200000F3B1F800C00CEA03069E4220D183001E
:100330004FF00F0C0CFA03F7BC4305FA03FC4CEA30
:10034000040491F803C0BCF1280F06D14FF0010C52
:100350000CFA00FCC2F814C00AE091F803C0BCF12A
:10036000480F05D14FF0010C0CFA00FCC2F810C088
:10037000401C0828D1D31460B1F800C0BCF1FF0FB5
:1003800034DD546800202EE000F1080C4FF0010825
:1003900008FA0CF3B1F800C00CEA03069E4221D122
:1003A00083004FF00F0C0CFA03F7BC4305FA03FC73
:1003B0004CEA040491F803C0BCF1280F05D100F108
:1003C000080C08FA0CF8C2F8148091F803C0BCF1CC
:1003D000480F07D100F1080C4FF0010808FA0CF89B
:1003E000C2F81080401C0828CED35460BDE8F081CC
:1003F00070B5002100230F22C47804B3154C246883
:1004000004F4E064C4F5E064210AC1F10403CA40C5
:10041000447804FA03F184781440214309010E4C16
:100420000678A155047804F01F050124AC40057836
:100430006D11AD0005F1E025C5F8004109E0047833
:1004400004F01F050124AC40044D0678761145F8F0
:10045000264070BD0CED00E000E400E080E100E02B
:1004600029B1064AD2690243044BDA6104E0034A27
:10047000D2698243014BDA617047000000100240EC
:1004800029B1064A12690243044B1A6104E0034A87
:1004900012698243014B1A6170470000001002404C
:1004A00029B1064A92690243044B9A6104E0034A67
:1004B00092698243014B9A6170470000001002402C
:1004C00029B1064AD2680243044BDA6004E0034AC9
:1004D000D2688243014BDA6070470000001002408E
:1004E0000F48006840F001000D4908600846406868
:1004F0000C4908400A494860084600680A49084013
:10050000074908600846006820F480200860084613
:10051000406820F4FE0048604FF41F008860704778
:10052000001002400000FFF8FFFFF6FE30B500218A
:100530000022002400232D4D6D6805F00C0121B12F
:10054000042905D0082923D105E0294D056022E0C2
:10055000274D05601FE0254D6D6805F47012234D91
:100560006D6805F48034022505EB92421CB9214DDB
:10057000554305600BE01D4D6D6805F400351DB158
:100580001C4D5543056002E0194D5543056002E0DE
:10059000174D056000BF00BF144D6D6805F0F001F8
:1005A0000909154D6B5C0568DD4045600F4D6D68B0
:1005B00005F4E061090A104D6B5C4568DD4085601B
:1005C0000A4D6D6805F46051C90A0B4D6B5C4568B6
:1005D000DD40C560054D6D6805F44041890B074D50
:1005E0006B5CC568B5FBF3F5056130BD00100240DA
:1005F00000127A0000093D00480000205800002049
:100600000149086070470000000042420149086645
:10061000704700000000424202460020044B586828
:1006200020F47C1042EA01031843014B58607047E4
:100630000010024001460020034A506820F00300E9
:1006400008435060704700000010024021B102884A
:1006500042F04002028004E002884FF6BF731A4065
:100660000280704710B504461148844208D1012128
:100670008014FFF725FF0021A014FFF721FF16E0EB
:100680000C48844208D101210014FFF7F9FE002133
:100690002014FFF7F5FE0AE00748844207D1012144
:1006A000C013FFF7EDFE0021E013FFF7E9FE10BDD8
:1006B0000030014000380040003C004010B50022EE
:1006C000028802F441520B884C8823438C882343D0
:1006D000CC8823430C8923434C8923438C892343AF
:1006E000CC8923431A430280838B4FF2FF7423404B
:1006F00083830B8A038210BD10B500F001F810BD92
:100700000CB50020019000903348006840F4803020
:100710003149086000BF3048006800F400300090A4
:100720000198401C0190009818B90198B0F5A06F8D
:10073000F1D12948006800F4003010B10120009088
:1007400001E0002000900098012843D12348006870
:1007500040F01000214908600846006820F00300BE
:1007600008600846006840F0020008601A484068C7
:10077000194948600846406848600846406840F4A7
:10078000806048600846406820F47C104860084655
:10079000406840F4E81048600846006840F0807007
:1007A000086000BF0C48006800F000700028F9D015
:1007B0000948406820F0030007494860084640683F
:1007C00040F00200486000BF0348406800F00C00A1
:1007D0000828F9D10CBD00000010024000200240A2
:1007E00010B500BFBF2080F31188BFF34F8FBFF358
:1007F0006F8F00BF00F0F0FC18B14FF0805004493B
:10080000086000BF002080F3118800BF10BD000009
:1008100004ED00E010B51348006840F001001149F4
:10082000086008464068104908400E49486008467C
:1008300000680E4908400B4908600846006820F42B
:10084000802008600846406820F4FE0048604FF4AD
:100850001F008860FFF750FF4FF0006004490860F8
:1008600010BD0000001002400000FFF8FFFFF6FE80
:1008700008ED00E021B1828942F40052828104E057
:1008800082894DF6FF731A4082817047024600202C
:10089000B1F5007F00D100BF13880B400BB10120E0
:1008A00000E00020704770B50246002400230025B8
:1008B000002040F66A16B14200D100BFC1F34215D4
:1008C00001F01F03012606FA03F3012D02D19689D8
:1008D000334006E0022D02D1168A334001E0968AA9
:1008E00033400C12012606FA04F41688344013B182
:1008F0000CB1012000E0002070BDF0B503460024DB
:1009000000260025002040F66A17B94200D100BF3A
:100910001846C1F3421401F01F06012707FA06F535
:10092000012C01D10C3004E0022C01D1103000E088
:1009300014301AB107682F43076002E00768AF431D
:100940000760F0BD2DE9F04786B005460E4600244D
:10095000A24600BFA1460027B08900B100BF2F46C4
:100960002C8A4CF6FF700440F08804432C82AC893A
:100970004EF6F3100440B08831890843718908436A
:100980000443AC81AC8A4FF6FF400440B089044375
:10099000AC8201A8FFF7CAFD1F48874202D1DDF8EB
:1009A00010A001E0DDF80CA0A88900F4004040B1DF
:1009B0000AEBCA0000EB0A1031684900B0FBF1F8FD
:1009C00007E00AEBCA0000EB0A1031688900B0FBAF
:1009D000F1F86420B8FBF0F004012009642101FB68
:1009E0001089A88900F4004040B1322000EBC90012
:1009F000B0FBF1F000F00700044308E0322000EB08
:100A000009106421B0FBF1F000F00F0004432C81C9
:100A100006B0BDE8F087000000380140C1F30802CD
:100A20008280704792B0FFF75BFD0120FFF7E8FD81
:100A30000020FFF7FFFD4FF400210020FFF7ECFD41
:100A40000120FFF7E3FD01210420FFF729FD01212B
:100A50000820FFF725FD01211020FFF721FD1020C0
:100A60008DF847008020ADF8440002208DF8460044
:100A700011A95F48FFF731FC5E48FFF7F3FD4FF423
:100A80003040ADF8400018208DF8430002208DF86A
:100A9000420010A95848FFF720FC01210803FFF786
:100AA000FFFC2820ADF838000020ADF8340002200B
:100AB000ADF832000720ADF83C000020ADF8300062
:100AC000ADF82C00ADF83A004FF48270ADF82E006E
:100AD0004FF40070ADF836000BA94648FFF7EEFD65
:100AE00001214448FFF7B2FD4448FFF7BBFD012157
:100AF0008803FFF7B5FC2820ADF824000020ADF8EE
:100B000020000220ADF81E000720ADF828000020CC
:100B1000ADF81C00ADF81800ADF826004FF4827057
:100B2000ADF81A004FF40070ADF8220006A9314864
:100B3000FFF7C4FD01213148FFF788FD25208DF81E
:100B4000140000208DF815008DF8160001208DF896
:100B5000170005A8FFF74CFC01218803FFF7A0FC54
:100B60004FF40070ADF8100018208DF8130003202A
:100B70008DF8120004A92248FFF7AFFB4FF4806004
:100B8000ADF8100004208DF8130004A91C48FFF7ED
:100B9000A4FB4FF4165000900020ADF80C000C2080
:100BA000ADF80A000020ADF808004FF40050ADF891
:100BB00006000020ADF8040069461248FFF7C2FEA7
:100BC000012240F227710F48FFF797FE01210D48DF
:100BD000FFF750FE252000F01F020121914042093D
:100BE000920002F1E022C2F8001100BF00BFFEE750
:100BF0000010014000300140000C0140003800406E
:100C000000080140003801401CB5002001210346C6
:100C10002022CDE9001009A10E4800F0ADFA002015
:100C2000012103462022CDE900100BA1104800F05D
:100C3000A3FA00F011FA00BFFEE70000496E6974E4
:100C400069616C697A6174696F6E5F646576696306
:100C500065000000250A000853656E642061206D60
:100C600065737361676520746F205553415254005A
:100C7000710F000810B5044600F0C0F92248006862
:100C8000401C214908602148006840B91F480460A1
:100C90000846006801280DD100F0C6F80AE01C489B
:100CA000006838B919480068C06AE16A884201D80A
:100CB0001648046017480068401C16490860164929
:100CC000E06A0968884202D91349E06A0860E16A6B
:100CD00001EB8101114A02EB8100211D00F082F934
:100CE00000F09EF90A48006868B108480068C06AC8
:100CF000E16A884207D24FF0805009490860BFF38B
:100D00004F8FBFF36F8F10BD1C0000200C00002020
:100D10002800002038000020240000205C1800205B
:100D200004ED00E010B516E000F068F90C48C0686A
:100D3000C468201D00F032F90A480068401E0949C5
:100D4000086009480068401E0749086000F068F91B
:100D5000204600F00BF8044800680028E4D110BDDC
:100D6000FC1800201C0000201800002010B50446CC
:100D7000206B00F065F9204600F062F910BD00001C
:100D800000BFFFF7CFFF064800680128F9D94FF0F0
:100D9000805004490860BFF34F8FBFF36F8FF0E7B7
:100DA0005C18002004ED00E02DE9FF5F80460E4650
:100DB0009146DDE90E7A109CA9F10100216B01EB4F
:100DC000800B2BF0070B002507E0715D04F1340068
:100DD0004155705D00B902E06D1C102DF5D300BFC8
:100DE000002143200155052F00D30427E762201D71
:100DF00000F0F5F804F1180000F0F1F82461C7F1F3
:100E00000500A06164620020606484F848004146E7
:100E10005846039A00F09AF82060BAF1000F01D00A
:100E2000CAF80040BDE8FF9F10B5002407E004EBBE
:100E300084010F4A02EB810000F0C4F8641C052C09
:100E4000F5D30C4800F0BEF80B4800F0BBF80B4897
:100E500000F0B8F80A4800F0B5F80A4800F0B2F817
:100E600004480949086004480849086010BD0000AA
:100E70005C180020C0180020D4180020E8180020BA
:100E8000FC18002010190020100000201400002081
:100E90000A490968096809B9012100E0002121B166
:100EA0004FF0FF31064A116006E004490968C9683D
:100EB000C868034A416811607047000010000020B4
:100EC0003C00002000BFBF2080F31188BFF34F8F8C
:100ED000BFF36F8F00BF00BFFEE7000070B5044690
:100EE000002504F0070020B104F00700C0F108005D
:100EF000044400F0E3F81248006820B9114820F0DB
:100F000007000F49086010480068204441F2F8715A
:100F1000884210D20C48006820440B490968884276
:100F200009D9074800680849096845180648006853
:100F300020440549086000F0DBF9284670BD000038
:100F4000040000206400002000000020001F4FF07B
:100F500080730360001F21F001030360001F034B37
:100F6000036014380260203870470000C50E000886
:100F700010E040F227710848FFF795FC50B10521B9
:100F80000548FFF74BFD00BF80210348FFF77EFCBB
:100F90000028F9D0EDE700000038014001460A6959
:100FA000D1E901309860D1E9010358605068884266
:100FB00001D188685060002008611068401E1060F0
:100FC0001068704700F1080141604FF0FF31816007
:100FD00000F10801C160016100210160704700213A
:100FE0000161704742684A6093688B6093685960FA
:100FF0009160086103685B1C0360704700BFBF20FD
:1010000080F31188BFF34F8FBFF36F8F00BF03488A
:101010000068401C0149086070470000080000207B
:1010200006480068401E054908600846006820B967
:10103000002080F3118800BF00BF70470800002027
:10104000704700204FF0E0210861886141F63F7051
:1010500048610720086170471CB5114800210B4604
:101060002022CDE900100FA1104800F085F80446B9
:10107000012C14D100BFBF2080F31188BFF34F8F24
:10108000BFF36F8F00BF4FF0FF30094908600120A8
:101090000849086000200849086000F053F81CBDAA
:1010A0004000002049444C4500000000810D00082C
:1010B0003C0000202800002020000020024800689A
:1010C000401C01490860704744000020184800682F
:1010D00018B101201749086028E000201549086070
:1010E0001548016800E0491E01EB8100134A52F8DF
:1010F000200008B9012000E000200028F3D101EB16
:1011000081020E4B03EB820042685268426000F19C
:1011100008024368934202D14268526842604268C2
:10112000D268074B1A600448016000BF7047000096
:101130004400002030000020240000205C18002023
:101140000C00002010B50A48006840F47F000849F0
:1011500008600846006840F07F400860FFF771FFB4
:10116000002004490860FFF721F8002010BD0000AE
:1011700020ED00E0080000202DE9FF4F85B08046FB
:1011800089461746DDE912ABB800FFF7A7FE064611
:1011900056B14C20FFF7A2FE04460CB1266304E0D2
:1011A0003046FFF74DFF00E000247CB10020CDE980
:1011B00000ABCDE902403A4649464046089BFFF75E
:1011C000F3FD2046FFF756FD012501E04FF0FF3506
:1011D000284609B0BDE8F08F2DE9F04100273948D5
:1011E0000068002862D138480068451C3648056010
:1011F0008DB93648D0F8008035480068334908601A
:101200003348C0F8008033480068401C314908600A
:10121000FFF73EFE00BF3048006885423AD300BF6A
:101220002A480068006808B9012000E0002020B1C9
:101230004FF0FF30284908602BE024480068C06860
:10124000C4686668B54202D22348066021E0201DCA
:10125000FFF7A4FEA06A18B104F11800FFF79EFE84
:101260001E49E06A0968884202D91C49E06A0860A0
:10127000E16A01EB81011A4A02EB8100211DFFF7AF
:10128000B1FE1849E06A0968C96A8842C8D30127D3
:10129000C6E700BF13480068C06A00EB8000104931
:1012A00051F82000012800D9012704E00E48006809
:1012B000401C0D4908600D48006800B10127384600
:1012C000BDE8F08144000020200000201000002034
:1012D00014000020340000203C00002024000020E6
:1012E0005C1800200C0000202C00002030000020A2
:1012F00070B500240026FFF781FE2E480068401ECE
:101300002C4908600846006800284ED12A48006829
:1013100000284AD023E02948C068C46804F11800B6
:10132000FFF73CFE201DFFF739FE2549E06A0968FA
:10133000884202D92249E06A0860E16A01EB810132
:10134000204A02EB8100211DFFF74CFE1E49E06A96
:101350000968C96A884202D301201C4908601748FD
:10136000006808B9012000E000200028D3D00CB1AB
:10137000FFF78EFD1648056865B100BFFFF72CFF2B
:1013800010B10120114908606D1E002DF6D100201A
:101390000F4908600D48006838B1012630070D4933
:1013A0000860BFF34F8FBFF36F8FFFF739FE3046F2
:1013B00070BD0000440000201C000020E818002040
:1013C000240000205C1800200C00002030000020C9
:1013D0002C00002004ED00E0F813000800000020BD
:1013E0005C00000028010008541400085C00002084
:1013F0002C1F000044010008000000000000000055
:10140000AAAAAAAA00000000000000000000000034
:1014100000000000000000000000000000000000CC
:1014200000000000000000000000000000000000BC
:1014300000000000000000000000000000000000AC
:10144000000000000102030401020304060708096A
:041450000204060884
:0400000508000221CC
:00000001FF
