:020000040800F2
:100000006807002021020008290200082B020008CE
:100010002D0200082F020008310200080000000035
:10002000000000000000000000000000890100083E
:100030003502000800000000CD010008C5030008DB
:100040003B0200083B0200083B0200083B0200089C
:100050003B0200083B0200083B0200083B0200088C
:100060003B0200083B0200083B0200083B0200087C
:100070003B0200083B0200083B0200083B0200086C
:100080003B0200083B0200083B0200083B0200085C
:100090003B0200083B0200083B0200083B0200084C
:1000A0003B0200083B0200083B0200083B0200083C
:1000B0003B0200083B0200083B0200083B0200082C
:1000C0003B0200083B0200083B0200083B0200081C
:1000D0003B0200083B0200083B0200083B0200080C
:1000E0003B0200083B0200083B02000800F002F857
:1000F00000F03AF80AA090E8000C82448344AAF188
:100100000107DA4501D100F02FF8AFF2090EBAE885
:100110000F0013F0010F18BFFB1A43F0010318473B
:10012000D4050000F4050000103A24BF78C878C157
:10013000FAD8520724BF30C830C144BF04680C60ED
:10014000704700000023002400250026103A28BF35
:1001500078C1FBD8520728BF30C148BF0B60704739
:100160001FB51FBD10B510BD00F07DF81146FFF79B
:10017000F7FF00F071F900F09BF803B4FFF7F2FF0E
:1001800003BC00F0A3F80000224B19680868B0E82F
:10019000F00F80F30988BFF36F8F4FF0000080F3FA
:1001A00011884EF00D0E70470000000006480068F0
:1001B000006880F3088862B661B6BFF34F8FBFF363
:1001C0006F8F00DF00BF00BF08ED00E0EFF3098094
:1001D000BFF36F8F0F4B1A6820E9F00F106008B55E
:1001E0004FF0BF0080F31188BFF34F8FBFF36F8FC5
:1001F00000F0B8F94FF0000080F31188BDE8084026
:1002000019680868B0E8F00F80F30988BFF36F8FB2
:10021000704700BF00000020EFF30580704700002A
:100220000948804709480047FEE7FEE7FEE7FEE78A
:10023000FEE7FEE7FEE7FEE7FEE7FEE704480549C6
:10024000054A064B70470000F9030008ED0000085E
:100250006801002068070020680300206803002070
:10026000704770477047754600F02CF8AE460500A1
:100270006946534620F00700854618B020B5FFF7C1
:10028000DDFFBDE820404FF000064FF000074FF0C3
:1002900000084FF0000B21F00701AC46ACE8C009A4
:1002A000ACE8C009ACE8C009ACE8C0098D467047AD
:1002B00010B50446AFF300802046BDE81040FFF7BC
:1002C0005CBF00000048704704010020014918206D
:1002D000ABBEFEE726000200704710B500F002F842
:1002E00010BD00000CB5002001900090334800685C
:1002F00040F480303149086000BF3048006800F4A5
:10030000003000900198401C0190009818B90198A5
:10031000B0F5A06FF1D12948006800F4003010B1A9
:100320000120009001E0002000900098012843D1B6
:100330002348006840F01000214908600846006822
:1003400020F0030008600846006840F002000860E2
:100350001A4840681949486008464068486008469D
:10036000406840F4806048600846406820F47C1093
:1003700048600846406840F4E81048600846006855
:1003800040F08070086000BF0C48006800F000700A
:100390000028F9D00948406820F003000749486068
:1003A0000846406840F00200486000BF03484068CB
:1003B00000F00C000828F9D10CBD0000001002402C
:1003C0000020024010B500BFBF2080F31188BFF3AA
:1003D0004F8FBFF36F8F00BF00F000F918B14FF0DF
:1003E00080500449086000BF002080F3118800BFDE
:1003F00010BD000004ED00E010B51348006840F0A7
:1004000001001149086008464068104908400E493B
:100410004860084600680E4908400B4908600846D5
:10042000006820F4802008600846406820F4FE0040
:1004300048604FF41F008860FFF74FFF4FF00060E7
:100440000449086010BD0000001002400000FFF8E1
:10045000FFFFF6FE08ED00E02348006840F00100D1
:100460002149086000BF2048006800F00200002811
:10047000F9D01D48406840F480201B494860084678
:10048000006840F08070086000BF1748006800F006
:1004900000700028F9D01448406840F0020012496A
:1004A00048600846806940F0100088610F48006885
:1004B00040F004000D4908600846006840F08000E4
:1004C00008600846006840F02000086008460068A0
:1004D00040F00100086005E00448C06840F080007A
:1004E0000249C860F8E70000001002400010014017
:1004F0000A490968096809B9012100E0002121B110
:100500004FF0FF31064A116006E004490968C968E6
:10051000C868034A41681160704700000400002069
:100520003000002001460A69D1E901309860D1E924
:10053000010358605068884201D1886850600020EB
:1005400008611068401E10601068704742684A6079
:1005500093688B60936859609160086103685B1CC5
:10056000036070471848006818B1012017490860F7
:1005700028E00020154908601548016800E0491E80
:1005800001EB8100134A52F8200008B9012000E075
:1005900000200028F3D101EB81020E4B03EB820017
:1005A00042685268426000F108024368934202D1F7
:1005B0004268526842604268D268074B1A60044839
:1005C000016000BF704700003800002024000020B8
:1005D000180000203C000020000000202DE9F04120
:1005E000002739480068002862D138480068451C57
:1005F000364805608DB93648D0F800803548006827
:10060000334908603348C0F8008033480068401C14
:1006100031490860FFF76CFF00BF30480068854231
:100620003AD300BF2A480068006808B9012000E0FA
:10063000002020B14FF0FF30284908602BE024480B
:100640000068C068C4686668B54202D22348066084
:1006500021E0201DFFF766FFA06A18B104F1180021
:10066000FFF760FF1E49E06A0968884202D91C4909
:10067000E06A0860E16A01EB81011A4A02EB81003D
:10068000211DFFF763FF1849E06A0968C96A8842BB
:10069000C8D30127C6E700BF13480068C06A00EB53
:1006A0008000104951F82000012800D9012704E0FA
:1006B0000E480068401C0D4908600D48006800B1F4
:1006C00001273846BDE8F0813800002014000020E2
:1006D0000400002008000020280000203000002036
:1006E000180000203C000020000000202000002016
:1006F0002400002014070008000000203C00000037
:1007000028010008500700083C0000202C070000CA
:10071000440100080000000000000000000000008C
:1007200000000000000000000000000000000000C9
:1007300000000000000000000000000000000000B9
:1007400000000000000000000000000000000000A9
:0400000508000221CC
:00000001FF
