:020000040800F2
:10000000981F002021020008290200082B02000886
:100010002D0200082F020008310200080000000035
:10002000000000000000000000000000890100083E
:100030003502000800000000CD010008C90C0008CE
:100040003B0200083B0200083B0200083B0200089C
:100050003B0200083B0200083B0200083B0200088C
:100060003B0200083B0200083B0200083B0200087C
:100070003B0200083B0200083B0200083B0200086C
:100080003B0200083B0200083B0200083B0200085C
:100090003B0200083B0200083B0200083B0200084C
:1000A0003B0200083B0200083B0200083B0200083C
:1000B0003B0200083B0200083B0200083B0200082C
:1000C0003B0200083B0200083B0200083B0200081C
:1000D0003B0200083B0200083B0200083B0200080C
:1000E0003B0200083B0200083B02000800F002F857
:1000F00000F03AF80AA090E8000C82448344AAF188
:100100000107DA4501D100F02FF8AFF2090EBAE885
:100110000F0013F0010F18BFFB1A43F0010318473B
:100120001C2100003C210000103A24BF78C878C18F
:10013000FAD8520724BF30C830C144BF04680C60ED
:10014000704700000023002400250026103A28BF35
:1001500078C1FBD8520728BF30C148BF0B60704739
:100160001FB51FBD10B510BD00F0F4F81146FFF724
:10017000F7FF00F0F5FE00F012F903B4FFF7F2FF0D
:1001800003BC00F019F90000224B19680868B0E8B8
:10019000F00F80F30988BFF36F8F4FF0000080F3FA
:1001A00011884EF00D0E70470000000006480068F0
:1001B000006880F3088862B661B6BFF34F8FBFF363
:1001C0006F8F00DF00BF00BF08ED00E0EFF3098094
:1001D000BFF36F8F0F4B1A6820E9F00F106008B55E
:1001E0004FF0BF0080F31188BFF34F8FBFF36F8FC5
:1001F00001F0C4FC4FF0000080F31188BDE8084016
:1002000019680868B0E8F00F80F30988BFF36F8FB2
:10021000704700BF0C000020EFF30580704700001E
:100220000948804709480047FEE7FEE7FEE7FEE78A
:10023000FEE7FEE7FEE7FEE7FEE7FEE704480549C6
:10024000054A064B70470000FD0C0008ED00000851
:1002500098190020981F0020981B0020981B002050
:10026000032A40F2308010F0030C00F0158011F8E2
:10027000013BBCF1020F624498BF11F801CB00F8BA
:10028000013B38BF11F8013BA2F1040298BF00F80E
:1002900001CB38BF00F8013B11F0030300F02880C8
:1002A000083AC0F0088051F8043B083A51F804CBF2
:1002B000A0E80810F5E7121D5CBF51F8043B40F8B8
:1002C000043BAFF30080D20724BF11F8013B11F8C3
:1002D00001CB48BF11F8012B24BF00F8013B00F807
:1002E00001CB48BF00F8012B70477047704770473B
:1002F00010B5203AC0F00B80B1E81850203AA0E8C1
:100300001850B1E81850A0E81850BFF4F5AF5FEAF4
:10031000027C24BFB1E81850A0E8185044BF18C9A7
:1003200018C0BDE810405FEA827C24BF51F8043B4E
:1003300040F8043B08BF7047D20728BF31F8023BA2
:1003400048BF11F8012B28BF20F8023B48BF00F836
:10035000012B7047754600F02BF8AE460500694644
:10036000534620F00700854618B020B5FFF766FF1A
:10037000BDE820404FF000064FF000074FF00008A6
:100380004FF0000B21F00701AC46ACE8C009ACE827
:10039000C009ACE8C009ACE8C0098D46704710B58B
:1003A0000446AFF300802046BDE81040FFF7E5BEED
:1003B000004870473819002001491820ABBEFEE7FD
:1003C00026000200704700B589B000208DF80800B3
:1003D0008DF809008DF80A008DF80B008DF80400E7
:1003E0008DF805008DF806008DF807008DF82000C7
:1003F0008DF821008DF822008DF823008DF81C0067
:1004000008208DF81D0000208DF81E008DF81F00BB
:100410008DF818008DF819008DF81A008DF81B0062
:100420008DF814008DF815008DF816008DF8170062
:100430008DF810008DF811008DF812008DF8130062
:100440008DF80C0008208DF80D0000208DF80E00AE
:100450008DF80F0000F040F910B9002009B000BD80
:1004600000F06AF908B90020F8E702AA2321202049
:1004700000F0A6F901AA2721242000F0A1F908AA7A
:100480000321002000F09CF907AA0721042000F0B6
:1004900097F906AA0B21082000F092F905AA13216A
:1004A000102000F08DF904AA1721142000F088F91B
:1004B00003AA1B21182000F083F90421602000F01A
:1004C00067F90121702000F063F900212A2000F073
:1004D0005FF99021292000F05BF90221282000F02B
:1004E00057F900F03FF908B90020B7E70120B5E758
:1004F00010B504462948844208D10121042000F0A7
:10050000ABF90021042000F0A7F946E0244884421A
:1005100008D10121082000F09FF90021082000F0F7
:100520009BF93AE01F48844208D10121102000F0D5
:1005300093F90021102000F08FF92EE01A48844230
:1005400008D10121202000F087F90021202000F0AF
:1005500083F922E01548844208D10121402000F0AF
:100560007BF90021402000F077F916E01048844222
:1005700008D10121802000F06FF90021802000F0D7
:100580006BF90AE00B48844207D10121801500F085
:1005900063F90021A01500F05FF910BD00080140CB
:1005A000000C0140001001400014014000180140FF
:1005B000001C0140002001402DE9F04102460025C9
:1005C0000026002000230024002791F803C00CF02F
:1005D0000F0591F803C00CF0100CBCF1000F03D014
:1005E00091F802C04CEA050591F800C0BCF1000F7B
:1005F00031D0146800202BE04FF0010C0CFA00F30E
:10060000B1F800C00CEA03069E4220D183004FF0EF
:100610000F0C0CFA03F7BC4305FA03FC4CEA040484
:1006200091F803C0BCF1280F06D14FF0010C0CFA71
:1006300000FCC2F814C00AE091F803C0BCF1480FF6
:1006400005D14FF0010C0CFA00FCC2F810C0401CA0
:100650000828D1D31460B1F800C0BCF1FF0F34DD1D
:10066000546800202EE000F1080C4FF0010808FA51
:100670000CF3B1F800C00CEA03069E4221D18300BE
:100680004FF00F0C0CFA03F7BC4305FA03FC4CEADD
:10069000040491F803C0BCF1280F05D100F1080C47
:1006A00008FA0CF8C2F8148091F803C0BCF1480FA6
:1006B00007D100F1080C4FF0010808FA0CF8C2F855
:1006C0001080401C0828CED35460BDE8F081416101
:1006D000704701617047000010B510210848FFF70E
:1006E000F8FF0A2400BF8021064800F011FA012813
:1006F00000D110BD601EC4B2002CF4DC0020F8E76D
:10070000000801400030014070B50446102109483E
:10071000FFF7DDFF032000F041FA204600F03EFA2B
:1007200000F022FA054610210248FFF7D2FF2846C2
:1007300070BD00000008014010B580210F2000F0BE
:1007400027F80A2400BF0E20FFF7DEFF00F0E000CC
:10075000802801D1012010BD601EC4B2002CF2DC43
:100760000120F8E710B500210F2000F011F80A244D
:1007700000BF0E20FFF7C8FF00F0E00008B901201D
:1007800010BD601EC4B2002CF3DC0020F8E70000AE
:1007900070B505460C4610210848FFF798FF022067
:1007A00000F0FCF9284600F0F9F9204600F0F6F9CF
:1007B00010210248FFF78DFF70BD000000080140C6
:1007C00070B504460D46164610210A48FFF77FFF14
:1007D000022000F0E3F9204600F0E0F9281B401C5D
:1007E000C1B2304600F0EAF910210248FFF771FF6C
:1007F00070BD00000008014029B1064AD2690243D9
:10080000044BDA6104E0034AD2698243014BDA61A6
:10081000704700000010024029B1064A12690243E5
:10082000044B1A6104E0034A12698243014B1A61C6
:10083000704700000010024029B1064A9269024345
:10084000044B9A6104E0034A92698243014B9A6126
:10085000704700000010024029B1064AD2680243E6
:10086000044BDA6004E0034AD2688243014BDA6049
:1008700070470000001002400F48006840F001007F
:100880000D490860084640680C4908400A4948601C
:10089000084600680A490840074908600846006899
:1008A00020F4802008600846406820F4FE0048607C
:1008B0004FF41F0088607047001002400000FFF8EE
:1008C000FFFFF6FE30B500210022002400232D4D4D
:1008D0006D6805F00C0121B1042905D0082923D148
:1008E00005E0294D056022E0274D05601FE0254DFC
:1008F0006D6805F47012234D6D6805F4803402258F
:1009000005EB92421CB9214D554305600BE01D4D8E
:100910006D6805F400351DB11C4D5543056002E0BE
:10092000194D5543056002E0174D056000BF00BF3B
:10093000144D6D6805F0F0010909154D6B5C0568F3
:10094000DD4045600F4D6D6805F4E061090A104D0A
:100950006B5C4568DD4085600A4D6D6805F460514B
:10096000C90A0B4D6B5C4568DD40C560054D6D687F
:1009700005F44041890B074D6B5CC568B5FBF3F589
:10098000056130BD0010024000127A0000093D00F0
:100990005C0000206C00002010B5014600220023FE
:1009A00000204A11012A02D1094C236806E0022ADC
:1009B00002D1074C236A01E0054C636A01F01F0273
:1009C000012494401C400CB1012000E0002010BD27
:1009D0000010024001460020034A506820F0F00059
:1009E0000843506070470000001002401149096838
:1009F00021F480310F4A11601146096821F48021E9
:100A00001160B0F5803F03D0B0F5802F0ED106E025
:100A10000849096841F48031064A116007E0054938
:100A2000096841F4A021034A116000E000BF00BF43
:100A3000704700000010024001460020034A506841
:100A400020F4E0600843506070470000001002404E
:100A500001460020034A506820F4605040EAC1007B
:100A6000506070470010024038B50020009000240C
:100A7000002500BF3120FFF78FFF05460098401C7E
:100A800000900098B0F5A06F01D0002DF2D0312079
:100A9000FFF782FF08B1012400E00024204638BDA2
:100AA00021B1028842F04002028004E002884FF641
:100AB000BF731A400280704710B504461148844243
:100AC00008D101218014FFF7C7FE0021A014FFF711
:100AD000C3FE16E00C48844208D101210014FFF740
:100AE0009BFE00212014FFF797FE0AE0074884428E
:100AF00007D10121C013FFF78FFE0021E013FFF79C
:100B00008BFE10BD0030014000380040003C00402A
:100B10000246002013890B400BB1012000E00020A9
:100B200070470146888970478181704710B500225F
:100B3000028802F441520B884C8823438C8823435B
:100B4000CC8823430C8923434C8923438C8923433A
:100B5000CC8923431A430280838B4FF2FF742340D6
:100B600083830B8A038210BD10B501210448FFF76F
:100B7000CFFF18B10248FFF7D4FFC4B2204610BD22
:100B8000003001400021018041808180C1800181CD
:100B900041818181C18107210182704710B50446DE
:100BA00000BF02210448FFF7B3FF0028F9D0214617
:100BB0000148FFF7B9FF10BD0030014070B5044691
:100BC0000D4600BF02210548FFF7A2FF0028F9D11A
:100BD00021780248FFF7A8FF70BD000000300140F7
:100BE00010B500F001F810BD0CB500200190009088
:100BF0003348006840F480303149086000BF304815
:100C0000006800F4003000900198401C01900098AA
:100C100018B90198B0F5A06FF1D12948006800F427
:100C2000003010B10120009001E0002000900098F9
:100C3000012843D12348006840F010002149086092
:100C40000846006820F0030008600846006840F08D
:100C5000020008601A484068194948600846406820
:100C600048600846406840F4806048600846406834
:100C700020F47C1048600846406840F4E810486062
:100C80000846006840F08070086000BF0C480068AB
:100C900000F000700028F9D00948406820F00300F7
:100CA000074948600846406840F00200486000BFBD
:100CB0000348406800F00C000828F9D10CBD000082
:100CC000001002400020024010B500BFBF2080F39A
:100CD0001188BFF34F8FBFF36F8F00BF01F06EF924
:100CE00018B14FF080500449086000BF002080F325
:100CF000118800BF10BD000004ED00E010B51348DE
:100D0000006840F001001149086008464068104939
:100D100008400E494860084600680E4908400B49E3
:100D200008600846006820F4802008600846406893
:100D300020F4FE0048604FF41F008860FFF750FF6A
:100D40004FF000600449086010BD00000010024030
:100D50000000FFF8FFFFF6FE08ED00E021B18289F8
:100D600042F40052828104E082894DF6FF731A40FA
:100D70008281704710B504462048844209D1012180
:100D80008803FFF769FD00214FF48040FFF764FD01
:100D900032E01B48844209D101214804FFF73CFDA1
:100DA00000214FF40030FFF737FD25E0154884425D
:100DB00009D101218804FFF72FFD00214FF4802085
:100DC000FFF72AFD18E01048844209D10121C80428
:100DD000FFF722FD00214FF40020FFF71DFD0BE07F
:100DE0000A48844208D101210805FFF715FD0021BA
:100DF0004FF48010FFF710FD10BD000000380140D7
:100E00000044004000480040004C004000500040BA
:100E100002460020B1F5007F00D100BF13880B40CF
:100E20000BB1012000E000207047F0B5034600241C
:100E300000260025002040F66A17B94200D100BF05
:100E40001846C1F3421401F01F06012707FA06F500
:100E5000012C01D10C3004E0022C01D1103000E053
:100E600014301AB107682F43076002E00768AF43E8
:100E70000760F0BD2DE9F04786B005460E46002418
:100E8000A24600BFA1460027B08900B100BF2F468F
:100E90002C8A4CF6FF700440F08804432C82AC8905
:100EA0004EF6F3100440B088318908437189084335
:100EB0000443AC81AC8A4FF6FF400440B089044340
:100EC000AC8201A8FFF7FEFC1F48874202D1DDF883
:100ED00010A001E0DDF80CA0A88900F4004040B1AA
:100EE0000AEBCA0000EB0A1031684900B0FBF1F8C8
:100EF00007E00AEBCA0000EB0A1031688900B0FB7A
:100F0000F1F86420B8FBF0F004012009642101FB32
:100F10001089A88900F4004040B1322000EBC900DC
:100F2000B0FBF1F000F00700044308E0322000EBD2
:100F300009106421B0FBF1F000F00F0004432C8194
:100F400006B0BDE8F08700000038014001468888FF
:100F5000C0F308007047C1F30802828070470000A8
:100F60001CB500220121084600F05EFE29490860F8
:100F700000220121084600F057FE27490860274853
:100F8000012100232022CDE9001025A1294800F0ED
:100F9000E5FF2248012100232022CDE9001026A1EF
:100FA0002B4800F0DBFF1D48012100232022CDE962
:100FB000001028A12D4800F0D1FF1848012100237E
:100FC0002022CDE900102AA1304800F0C7FF1348C5
:100FD000012100232022CDE900102DA1304800F08E
:100FE000BDFF0E48012100232022CDE900102DA1D4
:100FF000314800F0B3FF0948012100232022CDE948
:1010000000102EA1324800F0A9FF00F07DFD00BFC6
:10101000FEE7000048000020500000204C000020A7
:10102000496E697469616C697A6174696F6E5F5247
:10103000434300000D170008496E697469616C69CB
:101040007A6174696F6E5F5553415254000000001D
:101050006519000853656E642061206D65737361C6
:10106000676520746F20555341525400C51A00081B
:10107000526563696576652061206D65737361678C
:101080006520746F20555341525400007D1A0008AA
:10109000765461736B43414E4D4350696E697400E1
:1010A000C1160008496E697469616C697A61746976
:1010B0006F6E5F5350493100B9170008496E69746B
:1010C00069616C697A6174696F6E5F53504932006F
:1010D000891800082DE9F04105460E4616480768B4
:1010E00016480068001D00F069FA681C38B936B16E
:1010F00012480168091D124800F0A7FA1AE07C198D
:101100000E4800684460BC4207D20C480168091DC3
:101110000C48006800F07FFA0CE008480168091DDF
:101120000948006800F077FA08480068844201D254
:1011300006480460BDE8F081200000200C0000207B
:101140002419002014000020100000203C00002082
:1011500010B5044600F086FA22480068401C214978
:1011600008602148006840B91F48046008460068CC
:1011700001280DD100F024F90AE01C48006838B9B4
:1011800019480068C06AE16A884201D816480460BC
:1011900017480068401C164908601649E06A09684B
:1011A000884202D91349E06A0860E16A01EB8101D3
:1011B000114A02EB8100211D00F047FA00F064FAA9
:1011C0000A48006868B108480068C06AE16A884255
:1011D00007D24FF0805009490860BFF34F8FBFF32B
:1011E0006F8F10BD1C0000200C0000202800002084
:1011F00038000020240000207018002004ED00E0DA
:1012000010B516E000F02EFA0C48C068C468201D26
:1012100000F0D4F90A480068401E094908600948EE
:101220000068401E0749086000F02EFA204600F0D2
:1012300055F8044800680028E4D110BD10190020BA
:101240001C0000201800002070B504460D46206CDC
:1012500070B1216CE0680144E160D4E90210884279
:1012600001D32168E1602846226CE168FEF7F8FFAF
:1012700070BD2DE9F04104460F4615464FF00008B9
:10128000A66B206C28B37DB93946226C6068FEF7E6
:10129000E7FF216C606808446060D4E9010188427E
:1012A00017D32068606014E03946226CE068FEF7CE
:1012B000D7FF216CE068411AE1602168E06888424C
:1012C00003D2216CA068411AE160022D01D106B160
:1012D000761E701CA0634046BDE8F08110B5044640
:1012E000206B00F0E1F9204600F0DEF910BD0000AF
:1012F00000BFFFF785FF064800680128F9D94FF0C5
:10130000805004490860BFF34F8FBFF36F8FF0E741
:101310007018002004ED00E02DE9F04106460D466E
:1013200017469846069C0DB9246000E02760E663E6
:1013300025640121204600F095FCBDE8F0812DE9EF
:10134000FF5F80460E469146DDE90E7A109CA9F1BA
:101350000100216B01EB800B2BF0070B002507E050
:10136000715D04F134004155705D00B902E06D1CFF
:10137000102DF5D300BF002143200155052F00D3C8
:101380000427E762201D00F043F904F1180000F083
:101390003FF92461C7F10500A06164620020606428
:1013A00084F8480041465846039A00F0F5F820605A
:1013B000BAF1000F01D0CAF80040BDE8FF9F00005D
:1013C00010B5002407E004EB84010F4A02EB810012
:1013D00000F011F9641C052CF5D30C4800F00BF952
:1013E0000B4800F008F90B4800F005F90A4800F036
:1013F00002F90A4800F0FFF8044809490860044867
:101400000849086010BD000070180020D4180020A2
:10141000E8180020FC1800201019002024190020D2
:10142000100000201400002070B5054600F01AF9E5
:10143000A86B08B9012400E0002400F025F920463B
:1014400070BD70B5054600F00DF9A86BE96B8842D8
:1014500001D1012400E0002400F016F9204670BDFF
:101460000A490968096809B9012100E0002121B190
:101470004FF0FF31064A116006E004490968C96867
:10148000C868034A416811607047000010000020DE
:101490003C00002000BFBF2080F31188BFF34F8FB6
:1014A000BFF36F8F00BF00BFFEE770B5044600F0CA
:1014B000D9F894F9455010E0606A08B9012000E0BD
:1014C000002038B904F1240000F004FE18B100F047
:1014D000BFFA00E003E0681E45B2002DECDC00BF5F
:1014E000FF2084F8450000F0CFF800F0BBF894F935
:1014F000445010E0206908B9012000E0002048B9FC
:1015000004F1100000F0E6FD08B100F0A1FA681E39
:1015100045B200E001E0002DECDC00BFFF2084F8C4
:10152000440000F0B1F870BD70B50446002504F029
:10153000070020B104F00700C0F10800044400F0E7
:1015400015FB1248006820B9114820F007000F4928
:10155000086010480068204441F2F871884210D2B7
:101560000C48006820440B490968884209D907489B
:10157000006808490968451806480068204405497C
:10158000086000F0E7FD284670BD00000400002060
:101590007800002000000020001F4FF080730360DF
:1015A000001F21F001030360001F034B0360143888
:1015B00002602038704700009514000801460A694F
:1015C000D1E901309860D1E9010358605068884240
:1015D00001D188685060002008611068401E1060CA
:1015E0001068704770B5044600F03CF8A56B00F039
:1015F0004BF8284670BD00F1080141604FF0FF3103
:10160000816000F10801C160016100210160704743
:1016100000210161704710B502460B685C1C0CB9D3
:10162000106907E002F1080000E04068446824689F
:101630009C42FAD944684C604C68A1608860416063
:101640000A611468641C146010BD42684A609368A3
:101650008B60936859609160086103685B1C03604C
:101660007047000000BFBF2080F31188BFF34F8F89
:10167000BFF36F8F00BF03480068401C014908603A
:10168000704700000800002006480068401E054919
:1016900008600846006820B9002080F3118800BF68
:1016A00000BF704708000020704700204FF0E02185
:1016B0000861886141F63F70486107200861704702
:1016C000FEF781FE20B94FF400510248FEF7FFFFFC
:1016D00000BFFEE70010014070B50446002544B18C
:1016E00000F044FA00212046FFF7F4FC00F032FD40
:1016F00005463DB94FF0805003490860BFF34F8F56
:10170000BFF36F8F70BD000004ED00E008B5244802
:10171000FEF7EEFE2348FEF7EBFE2348FEF7E8FE59
:101720002248FFF7C9F92248FFF7C6F92148FFF719
:1017300021FBFFF7A1F800244FF48030FFF756F9A2
:10174000FFF792F90446012C0BD10020FFF742F974
:101750000020FFF73FF90020FFF76EF90020FFF7A8
:1017600077F901210420FFF767F801210820FFF72E
:1017700063F801211020FFF75FF801210846FFF709
:101780005BF810208DF803004002ADF80000032044
:101790008DF8020069460448FEF70EFF00BFFEE721
:1017A00000080140000C01400010014000300140E1
:1017B000003800400038014088B01020ADF81C000F
:1017C00018208DF81F0003208DF81E0007A92B4854
:1017D000FEF7F2FE01210803FFF72EF8E020ADF836
:1017E000040018208DF8070001A92448FEF7E4FE44
:1017F00002A8FFF7C7F94FF48270ADF80A00002085
:10180000ADF80800ADF816001020ADF81400002067
:10181000ADF81000ADF80E000720ADF8180000205C
:10182000ADF80C004FF40070ADF8120002A9144896
:10183000FFF77CF901211248FFF732F94FF400510C
:101840001048FEF744FFC820FFF746FF4FF4005151
:101850000C48FEF73EFFC820FFF73EFF4FF4005153
:101860000848FEF734FFC820FFF736FF4FF4005159
:101870000448FEF72EFF00BFFEE70000000801400D
:10188000003001400010014088B04FF48050ADF8A6
:101890001C0010208DF81F0003208DF81E0007A9E2
:1018A0002D48FEF789FE01218803FEF7A5FF4FF4BE
:1018B0006040ADF8040018208DF8070003208DF873
:1018C000060001A92448FEF777FE02A8FFF75AF99F
:1018D0004FF48270ADF80A001820ADF81400002013
:1018E000ADF81000ADF80E000720ADF8180000208C
:1018F000ADF80C00ADF80800ADF816004FF44070DC
:10190000ADF8120002A91548FFF710F9012113489C
:10191000FFF7C6F84FF400511148FEF7D8FE4FF418
:10192000FA70FFF7D9FE4FF400510D48FEF7D1FED3
:101930004FF4FA70FFF7D0FE4FF400510848FEF75D
:10194000C6FE4FF4FA70FFF7C7FE4FF4005104488B
:10195000FEF7BFFE00BFFEE7000C0140003800406C
:101960000010014086B001218803FEF765FF4FF4A7
:101970000070ADF8140018208DF8170003208DF8C2
:10198000160005A92948FEF717FE4FF48060ADF850
:10199000140004208DF8170003208DF8160005A907
:1019A0002248FEF709FE4FF4165001900020ADF8D2
:1019B00010000C20ADF80E000020ADF80C004FF424
:1019C0000050ADF80A000020ADF8080001A9184841
:1019D000FFF750FA012240F227711548FFF725FA68
:1019E00001211348FFF7BAF94FF400511148FEF7EF
:1019F0006EFE4FF47A70FFF76FFE4FF400510D4802
:101A0000FEF767FE4FF47A70FFF766FE4FF4005161
:101A10000848FEF75CFE4FF47A70FFF75DFE4FF466
:101A200000510448FEF755FE00BFFEE700080140E4
:101A30000038014000100140034909680160034972
:101A40000968416070470000340000202000002039
:101A500001200149086070473000002070B505463C
:101A60000C460548016818312846FFF7D4FD0121CE
:101A70002046FFF72FFB70BD0C00002008B51AE0D0
:101A800000BF20210C48FFF7C3F90028F9D00A480D
:101A9000FFF75CFAC0B2009000231A466946074877
:101AA000006800F01FF94FF0805005490860BFF34F
:101AB0004F8FBFF36F8FE3E70038014050000020E5
:101AC00004ED00E008B500BF18E00D480068FFF71E
:101AD00089FD642269460A48006800F08FF90446CF
:101AE000012C0BD100BF80210648FFF791F9002897
:101AF000F9D0009881B20348FFF72DFAE5E700001E
:101B000048000020003801401CB5114800210B4658
:101B10002022CDE900100FA1104800F01FFA044662
:101B2000012C14D100BFBF2080F31188BFF34F8F69
:101B3000BFF36F8F00BF4FF0FF30094908600120ED
:101B40000849086000200849086000F053F81CBDEF
:101B50004000002049444C4500000000F1120008FC
:101B60003C000020280000202000002002480068DF
:101B7000401C014908607047440000201848006874
:101B800018B101201749086028E0002015490860B5
:101B90001548016800E0491E01EB8100134A52F824
:101BA000200008B9012000E000200028F3D101EB5B
:101BB00081020E4B03EB820042685268426000F1E2
:101BC00008024368934202D1426852684260426808
:101BD000D268074B1A600448016000BF70470000DC
:101BE0004400002030000020240000207018002055
:101BF0000C00002010B50A48006840F47F00084936
:101C000008600846006840F07F400860FFF74DFD1F
:101C1000002004490860FEF7C9FA002010BD00004A
:101C200020ED00E0080000202DE9F84307460D46AE
:101C300090460DB9002601E007FB05F606F14800C5
:101C4000FFF772FC04464CB1A14609F1480943462E
:101C50004A46294638460094FFF75EFB2046BDE819
:101C6000F883000070B505460E462C46FFF7FAFCD7
:101C7000D4E90F12206801FB0200A0600020A063DD
:101C800020686060E06B401E226C216800FB02113E
:101C9000E160FF2084F8440084F845009EB9206983
:101CA00008B9012000E00020A8B904F1100000F0FC
:101CB00011FA80B14FF0805009490860BFF34F8F8F
:101CC000BFF36F8F07E004F11000FFF794FC04F1FD
:101CD0002400FFF790FCFFF7D7FC012070BD000047
:101CE00004ED00E02DE9FF4383B0074688461D461A
:101CF0004FF000093C4600BFFFF7B4FCA06BE16B5E
:101D0000884201D3022D28D12A4641462046FFF7BA
:101D1000B0FA0646606A08B9012000E0002068B900
:101D200004F1240000F0D6F988B14FF08050324918
:101D30000860BFF34F8FBFF36F8F08E03EB14FF0E5
:101D400080502D490860BFF34F8FBFF36F8FFFF7AF
:101D50009BFC012007B0BDE8F083059818B9FFF798
:101D600093FC0020F6E7B9F1000F04D101A8FFF7BA
:101D700063FE4FF00109FFF787FCFFF7F7FEFFF75F
:101D800071FC94F94400401C10B9002084F8440010
:101D900094F94500401C10B9002084F84500FFF775
:101DA00073FC05A901A800F0ABF8F0B92046FFF7D5
:101DB00048FBA0B104F110000599FFF74FFE204643
:101DC000FFF773FB00F0C6F9002895D14FF0805063
:101DD00009490860BFF34F8FBFF36F8F8CE7204630
:101DE000FFF763FB00F0B6F986E72046FFF75DFBDF
:101DF00000F0B0F90020ADE704ED00E02DE9F74177
:101E000083B005460F464FF000082C4600BFFFF791
:101E100029FCA66BF6B139462046FFF715FA701E6D
:101E2000A063206908B9012000E0002060B904F136
:101E3000100000F04FF938B14FF080502F49086082
:101E4000BFF34F8FBFF36F8FFFF71EFC012006B06B
:101E5000BDE8F081059818B9FFF716FC0020F6E7F9
:101E6000B8F1000F04D101A8FFF7E6FD4FF001081B
:101E7000FFF70AFCFFF77AFEFFF7F4FB94F9440042
:101E8000401C10B9002084F8440094F94500401C1F
:101E900010B9002084F84500FFF7F6FB05A901A85A
:101EA00000F02EF8F0B92046FFF7BEFAA0B104F119
:101EB00024000599FFF7D2FD2046FFF7F6FA00F05F
:101EC00049F90028A3D14FF080500C490860BFF3B6
:101ED0004F8FBFF36F8F9AE72046FFF7E6FA00F0C7
:101EE00039F994E72046FFF7E0FA00F033F920468D
:101EF000FFF79AFA00288AD00020A8E704ED00E056
:101F000070B506460C46FFF7ADFB124802687068D4
:101F1000131A2068401C08B9002517E00E493068E4
:101F20000968884204D07068904201D801250DE00C
:101F30002068984207D92068C01A20603046FFF711
:101F40007BFD002502E0002020600125FFF79CFBBF
:101F5000284670BD20000020340000202DE9FF4FEE
:101F600085B0804689461746DDE912ABB800FFF719
:101F7000DBFA064656B14C20FFF7D6FA04460CB100
:101F8000266304E03046FFF78FFB00E000247CB1BD
:101F90000020CDE900ABCDE902403A464946404633
:101FA000089BFFF7CCF92046FFF7D2F8012501E0A6
:101FB0004FF0FF35284609B0BDE8F08F2DE9F0411C
:101FC000002739480068002862D138480068451C5D
:101FD000364805608DB93648D0F80080354800682D
:101FE000334908603348C0F8008033480068401C1B
:101FF00031490860FFF734FA00BF30480068854275
:102000003AD300BF2A480068006808B9012000E000
:10201000002020B14FF0FF30284908602BE0244811
:102020000068C068C4686668B54202D2234806608A
:1020300021E0201DFFF7C2FAA06A18B104F11800D0
:10204000FFF7BCFA1E49E06A0968884202D91C49B8
:10205000E06A0860E16A01EB81011A4A02EB810043
:10206000211DFFF7F2FA1849E06A0968C96A884237
:10207000C8D30127C6E700BF13480068C06A00EB59
:102080008000104951F82000012800D9012704E000
:102090000E480068401C0D4908600D48006800B1FA
:1020A00001273846BDE8F0814400002020000020D0
:1020B0001000002014000020340000203C0000200C
:1020C00024000020701800200C0000202C000020AC
:1020D0003000002070B50646F068C46804F11800AE
:1020E000FFF76CFA15480068A0B9201DFFF766FAE3
:1020F0001349E06A0968884202D91149E06A086018
:10210000E16A01EB81010F4A02EB8100211DFFF71B
:102110009CFA04E004F118010B48FFF796FA0B490A
:10212000E06A0968C96A884204D901250120084982
:10213000086000E00025284670BD00004400002033
:102140002400002070180020FC1800200C00002043
:102150003000002070B500240026FFF783FA2E48D7
:102160000068401E2C4908600846006800284ED1CF
:102170002A48006800284AD023E02948C068C4687B
:1021800004F11800FFF71AFA201DFFF717FA254986
:10219000E06A0968884202D92249E06A0860E16A77
:1021A00001EB8101204A02EB8100211DFFF74DFA6E
:1021B0001E49E06A0968C96A884202D301201C49A5
:1021C00008601748006808B9012000E000200028D6
:1021D000D3D00CB1FFF744F91648056865B100BFCC
:1021E000FFF7ECFE10B10120114908606D1E002DB3
:1021F000F6D100200F4908600D48006838B101266B
:1022000030070D490860BFF34F8FBFF36F8FFFF7A3
:102210003BFA304670BD0000440000201C00002046
:10222000FC18002024000020701800200C00002062
:10223000300000202C00002004ED00E05C220008AB
:10224000000000207000000028010008CC220008D7
:1022500070000020281F000044010008000000005A
:1022600000000000AAAAAAAA0000000000000000C6
:10227000000000000000000000000000000000005E
:10228000000000000000000000000000000000004E
:10229000000000000000000000000000000000003E
:1022A000000000000000000000000000000000002E
:1022B0000000000000000000000000000102030414
:0C22C000010203040607080902040608D6
:0400000508000221CC
:00000001FF
