:020000040800F2
:1000000060120020DD0100080B170008971300089C
:100010000917000849020008AD1A00080000000096
:100020000000000000000000000000004501000882
:1000300015030008000000008901000827180008C7
:10004000F7010008F7010008F7010008F7010008B0
:10005000F7010008F7010008F7010008F7010008A0
:10006000F7010008F7010008F7010008F701000890
:10007000F7010008F7010008F7010008F701000880
:10008000F7010008F7010008F7010008F701000870
:10009000F7010008F7010008F7010008F701000860
:1000A000F7010008F7010008F7010008F701000850
:1000B000F7010008F7010008F7010008F701000840
:1000C000F7010008F7010008F7010008F701000830
:1000D000F7010008F7010008F7010008F701000820
:1000E000F7010008F7010008F7010008F701000810
:1000F000F7010008F7010008F7010008F701000800
:10010000F7010008F7010008F7010008F7010008EF
:10011000F7010008F7010008F7010008F7010008DF
:10012000F7010008F7010008F7010008F7010008CF
:10013000DFF80CD000F076F800480047CF1A00082E
:1001400060120020224B19680868B0E8F00F80F3B5
:100150000988BFF36F8F4FF0000080F311884EF0D5
:100160000D0E70470000000006480068006880F32C
:10017000088862B661B6BFF34F8FBFF36F8F00DFA1
:1001800000BF00BF08ED00E0EFF30980BFF36F8F01
:100190000F4B1A6820E9F00F106008B54FF05000BF
:1001A00080F31188BFF34F8FBFF36F8F02F062F9B6
:1001B0004FF0000080F31188BDE808401968086816
:1001C000B0E8F00F80F30988BFF36F8F704700BF6E
:1001D00040000020EFF3058070470000064880478C
:1001E00006480047FEE7FEE7FEE7FEE7FEE7FEE71C
:1001F000FEE7FEE7FEE7FEE7911800083101000880
:1002000040EA01039B0703D009E008C9121F08C098
:10021000042AFAD203E011F8013B00F8013B521E18
:10022000F9D27047064C074D06E0E06840F0010344
:1002300094E8070098471034AC42F6D3FFF77CFFF0
:10024000BC2C0008DC2C0008FEE700B589B00020BB
:10025000082106908DF800008DF801108DF804003B
:100260008DF802008DF8051007908DF803008DF8C9
:10027000060002900390049005908DF8070001F0AD
:100280008BF8002844D001F0B9F8002840D006AA25
:100290002321202001F0F8F807AA2721242001F0CB
:1002A000F3F802AA0321002001F0EEF86A460721C4
:1002B000042001F0E9F803AA0B21082001F0E4F87A
:1002C00004AA1321102001F0DFF805AA1721142039
:1002D00001F0DAF801AA1B21182001F0D5F8042159
:1002E000602001F0B3F80121702001F0AFF8002187
:1002F0002A2001F0ABF8E521292001F0A7F883219D
:10030000282001F0A3F801F08EF8002800D0012089
:1003100009B000BD704700002DE9F84FDFF8B8A123
:1003200000220AF1040B144601274FF00F090BF1CC
:10033000040E00BF0B6807FA04F52B40AB4274D1E2
:10034000DFF898C14E68A6EB0C0866452BD00DDC93
:10035000032E34D005DC36B3012E19D0022E2FD156
:100360001BE0112E16D0122E2AD119E0B8F5881FE5
:1003700019D006DCB8F5803F15D0B8F5801F1FD125
:1003800011E0B8F5001F0ED0B8F5041F18D10AE02F
:10039000CA6815E0CA68121D12E0CA6808320FE088
:1003A000CA680C320CE08A682AB1012A4FF00802B0
:1003B00003D0456104E0042202E0056100E0002270
:1003C000FF2B01D8064601E000F104064FEA840540
:1003D00001D9A5F12005D6F800C009FA05F82CEAE4
:1003E000080C02FA05F54CEA050CC6F800C04D6889
:1003F000ED006AD53A4DAE6946F00106AE61AD69D1
:1004000024F0030605F001050095364D06EB050CBA
:10041000DCF80850A6074FEA167809FA08F6B54343
:10042000314EB04202D100261AE04EE02F4EB042CB
:1004300001D1012614E02E4EB04201D102260FE078
:100440002C4EB04201D103260AE02B4EB04201D11E
:10045000042605E0294EB04201D1052600E006261B
:1004600006FA08F62E43CCF808604D68DAF800600A
:10047000ED03554601D51E4300E09E432E604D68B6
:10048000AD0305D5DBF800601E43CBF8006004E047
:10049000DBF800509D43CBF800504D68DEF800605B
:1004A000ED02754601D51E4300E09E432E604D6867
:1004B000AD0205D5084D0C352E681E432E6004E0B4
:1004C000054E0C3635689D433560641C102CFFF4D6
:1004D00031AFBDE8F88F00000004014000001110AA
:1004E000001002400000014000080140000C0140E3
:1004F000001001400014014000180140001C0140A0
:100500000AB1016170470904FBE7000001488068F7
:1005100070470000100000200248816802781144F2
:100520008160704710000020074810B5016841F055
:1005300010010160032000F089F80F2000F006F898
:1005400000F024F8002010BD0020024070B50D4DD1
:1005500004464FF47A712878B1FBF0F00A49096833
:10056000B1FBF0F000F0ECFD48B9102C07D20022EE
:100570002146501E00F04AF800206C6070BD01203A
:1005800070BD000010000020000000201D4808B5CC
:10059000816941F001018161806900F001000090F2
:1005A000032000F053F8002211466FF00B0000F01A
:1005B0002DF8002211466FF00A0000F027F8002203
:1005C00011466FF0090000F021F800221146501F7B
:1005D00000F01CF800221146101F00F017F800224E
:1005E0000F21901E00F012F800220F21501E00F083
:1005F0000DF80548416821F0E06141F080614160FB
:1006000008BD00000010024000000140F0B40E4B95
:100610001B680C46C3F30223C3F10705042D00D960
:100620000425191D072901D2002300E0DB1E012645
:1006300006FA05F1491E214099409E40761E16405B
:100640003143F0BC01F062B80CED00E0064900F067
:10065000070208684FF6FF03184040EA0220034AE9
:1006600010430860704700000CED00E00000FA0540
:100670002DE9F047DFF83C8105460E46D8F800002A
:1006800000F00700B0420CD2D8F8001021F00701AA
:100690003143C8F80010D8F8000000F00700B0425D
:1006A00063D12878444C800705D56068A96820F09C
:1006B000F000084360602878C00745D068680128CA
:1006C00016D02168022816D0890700294DDA616802
:1006D00021F0030101436160FFF718FF69680746D5
:1006E00041F2883001290FD00229814619D027E034
:1006F00021688903E9E78901E7E700BFFFF706FF03
:10070000C11B494501D918E081466068C0F38100EA
:100710000128F3D118E000BFFFF7F8FEC11B4945DF
:100720000BD86068C0F381000228F5D10CE000BF4F
:10073000FFF7ECFEC11B494502D90320BDE8F08755
:10074000606810F00C0FF3D1D8F80010404601F0AB
:100750000701B1420BD9016821F007013143016063
:10076000006800F00700B04201D00120E6E72878D9
:10077000400705D56068E96820F4E06008436060E0
:100780002878000706D56068296920F4605040EA9F
:10079000C100606000F03CF86168084AC1F30311D1
:1007A000515CC840064908600F20FFF7CFFE0020CB
:1007B000C4E700000020024000100240842C000822
:1007C0000000002001480068704700000000002081
:1007D0000448054900684968044AC1F30221515C94
:1007E000C84070470000002000100240942C000810
:1007F0000448054900684968044AC1F3C221515CB4
:10080000C84070470000002000100240942C0008EF
:1008100012A185B00FC98DE80F0014A0144A00681A
:1008200004905168134801F00C03042B10D0082BDE
:100830000ED1C1F38343C9031DF803000AD55168E3
:1008400004AAC1F34041515C0A4A5043B0FBF1F0A5
:1008500005B0704708494843FAE700000203040561
:10086000060708090A0B0C0D0E0F101001020000FC
:100870000010024000127A0000093D002DE9F84FF7
:1008800004460078B94DC00748D06868C0F38100BD
:10089000012807D06868C0F38100022809D1686880
:1008A000C00306D52868800338D5606800286FD05B
:1008B00034E06068B0F5803F0BD010B1B0F5A02FE8
:1008C00011D0286820F480302860286820F4802027
:1008D00002E0286840F480302860606888B1FFF743
:1008E00015FE064609E0286840F480202860F0E7FD
:1008F000FFF70CFE801B642875D828688003F7D5A5
:100900000CE0FFF703FE064605E000BFFFF7FEFD23
:10091000801B6428F0D828688003F7D42078944E90
:1009200080074FF001094FF000083BD5686810F0D0
:100930000C0F07D06868C0F38100022809D16868ED
:10094000C00306D42868800714D5206901281FD168
:1009500010E02069B0B1C6F80090FFF7D7FD074658
:1009600005E000BFFFF7D2FDC01B0228C4D82868ED
:100970008007F7D52868616920F0F80040EAC100D7
:1009800028600FE0C6F80080FFF7C0FD074606E0CC
:10099000E9E000BFFFF7BAFDC01B022823D8286892
:1009A0008007F7D4207800072CD57248A169D9B107
:1009B000C0F80090FFF7AAFD074604E0FFF7A6FD88
:1009C000C01B02280FD8686A8007F7D56A484FF421
:1009D000FA510068B0FBF1F0009000BF0098411E92
:1009E0000091FAD20EE080E0C0F80080FFF78EFDA3
:1009F000074604E0FFF78AFDC01B022875D8686A25
:100A00008007F7D42078400760D5E8690027C00048
:100A100008D4E86940F08050E861E869012700F0F7
:100A20008050009055480168C90513D40168834679
:100A300041F480710160FFF769FD824606E000BF66
:100A4000FFF764FDA0EB0A0064284ED8DBF8000035
:100A5000C005F5D5E06801280AD008B1052813D0F3
:100A6000286A20F001002862286A20F0040002E0D1
:100A7000286A40F001002862E06841F2883B98B1A2
:100A8000FFF744FD82460BE0286A40F0040028622C
:100A9000EEE700BFFFF73AFDA0EB0A0159455AD82F
:100AA000286A8007F6D50CE0FFF730FD824605E0A6
:100AB000FFF72CFDA0EB0A0159454CD8286A8007A6
:100AC000F6D41FB1E86920F08050E861E06988B38E
:100AD0006968C1F38101022945D00228C6F8608007
:100AE00004D0FFF713FD044638E034E0FFF70EFDB5
:100AF000074604E0FFF70AFDC01B02282BD8286830
:100B00008001F7D4206AB0F5803F05D16868A168FC
:100B100020F4003008436860D4E90801084369689C
:100B200021F4741108436860C6F86090FFF7EEFC8A
:100B3000044606E015E000BFFFF7E8FC001B0228B2
:100B400009D828688001F7D50BE000BFFFF7DEFC6D
:100B5000001B022802D90320BDE8F88F2868800115
:100B6000F4D40020F8E70120F6E70000001002406E
:100B70000000424280044242000000200070004019
:100B800090F85100704770B5040005D00025A562AB
:100B900094F8510010B104E0012070BD204600F02F
:100BA00033F8022084F851002068016821F04001E8
:100BB0000160D4E901010843D4E903121143084359
:100BC00061690843218B01F400710843E16908431E
:100BD000216A0843A16A084321680860A0690421CA
:100BE00001EA1040616A0843216848602168E06AB0
:100BF00008612068C16921F40061C1616565012057
:100C000084F85100002070BD30B51E4D03680024EB
:100C10001D480221032285B0AB4212D1836943F4FF
:100C2000805383618069194D00F480500490A020A6
:100C3000CDE90001039269462846FFF76DFB40208D
:100C400016E0134DAB421AD1C36943F48043C3612C
:100C5000C069104D00F4804004904FF42040CDE96D
:100C60000001039269462846FFF756FB4FF4804087
:100C7000CDE90004694628460294FFF74DFB05B014
:100C800030BD00000030014000100240000801406B
:100C900000380040000C01402DE9F84F0446406840
:100CA0000026984617460D464FF00409B0F5827F9E
:100CB00001D1A06890B194F85000012819D04FF0EC
:100CC000010B84F850B0FFF721FC009094F851001C
:100CD0004FF0000A01280ED002267FE084F85190E0
:100CE00013460A462046CDF8008000F031F9BDE8F1
:100CF000F88F0220FBE7002D6FD0002F6DD084F815
:100D00005190C4F854A0A563A787E787C4F830A022
:100D1000A4F834A0A4F836A0C4F840A0C4F844A0B5
:100D2000A0684FF40047B84204D12068016821F45C
:100D30008041016020680168490603D4016841F0E0
:100D400040010160E068B8B133E020688168C907FC
:100D500006D0007B05F8010BE08F401EE0870BE01A
:100D6000B8F1000F23D0B8F1FF3F05D0FFF7CEFB5D
:100D70000099411A41451AD2E08F0028E5D11BE0C5
:100D800020688168C90706D0C06825F8020BE08F8B
:100D9000401EE0870DE0B8F1000F08D0B8F1FF3F2A
:100DA00007D0FFF7B3FB0099411A414501D3032651
:100DB00014E0E08F0028E3D16068B0F5827F0AD1AB
:100DC000A068B84202D0B0F5806F04D120680168F5
:100DD00021F040010160606D00B1012684F851B03E
:100DE00084F850A0304682E72DE9F84F044690F889
:100DF00050000026994617460D4601280DD04FF0A9
:100E0000010B84F850B0FFF781FB804694F8510045
:100E1000B246012804D0022694E00220BDE8F88FF3
:100E2000002D7BD0002F79D0032084F85100C4F826
:100E300054A02563A786E786C4F838A0A4F83CA090
:100E4000A4F83EA0C4F844A0C4F840A0A068B0F53F
:100E5000004F04D12068016841F48041016020689E
:100E60000168490603D4016841F040010160E0686F
:100E7000B0F5006F606804D030B3E08E012823D055
:100E80003EE010B1E08E01281AD135F8021B20682F
:100E900005E020688168890706D535F8021BC16026
:100EA000E08E401EE0860BE0B9F1000F34D0B9F1BE
:100EB000FF3F05D0FFF72AFBA0EB080149452BD2E5
:100EC000E08E0028E5D11EE0216815F8010B0873BB
:100ED00006E020688168890706D515F8011B0173B3
:100EE000E08E401EE0860BE0B9F1000F14D0B9F19E
:100EF000FF3F05D0FFF70AFBA0EB080149450BD2E5
:100F0000E08E0028E5D14B46012202212046CDF893
:100F1000008000F039FC10B1032613E011E04246D6
:100F20004946204600F002FC18B1012620206065E9
:100F300008E0A06818B92068C16880680090606DFA
:100F400000B1012684F851B084F850A0304665E71E
:100F50002DE9F84F044690F8500000260A9F9A4663
:100F600093460D464FF0010801280ED0012084F869
:100F70005000FFF7CBFA814694F8510061680128D0
:100F80000CD0B1F5827F07D102E00220BDE8F88FD6
:100F9000A16809B9042801D00226BDE055B1BBF112
:100FA000000F07D0BAF1000F04D094F851000128C7
:100FB00002D004E00126AFE0052084F851000020B3
:100FC0006065C4F838B0A4F83EA0A4F83CA025633E
:100FD000A4F836A0A4F834A02064606420680168F6
:100FE000490603D4016841F040010160E068B0F5B2
:100FF000006F606804D0E8B3E08E01283BD06AE05F
:1010000010B1E08E01282ED1216835F8020BC8609E
:10101000E08E401EE08626E0B8F1000F0DD0E08E95
:1010200058B120688168890707D535F8021BC1606F
:10103000E08E401EE0864FF00008E08F58B1206837
:101040008168C90707D0C0682BF8020BE08F401EEB
:10105000E0874FF00108781C05D0FFF757FAA0EBA6
:101060000900B84246D2E08E0028D5D1E08F002892
:10107000D2D136E0FFE7216815F8010B0873E08E46
:10108000401EE08627E000BFB8F1000F0DD0E08ED3
:1010900058B120688168890707D515F8011B0173CD
:1010A000E08E401EE0864FF00008E08F58B12068C7
:1010B0008168C90707D0C0680BF8010BE08F401E9C
:1010C000E0874FF00108781C05D0FFF71FFAA0EB6E
:1010D0000900B8420ED2E08E0028D5D1E08F00285A
:1010E000D2D13B46012202212046CDF8009000F0EB
:1010F0004BFB08B103260FE04A463946204600F074
:1011000015FB18B101262020606505E0A06818B91C
:101110002068C16880680090012084F85100002098
:1011200084F85000304631E74FF0E0210428086988
:1011300003D020F004000861704740F00400FAE793
:1011400010B5401EB0F1807F01D3012010BD4FF0DB
:10115000E02460610F21601700F0D8FA0020A06140
:1011600007202061002010BD70B5040004D094F861
:101170003900002510B106E0012070BD84F8385018
:10118000204600F023F8242084F839002068C16844
:1011900021F40051C160204600F09EFB20680169E7
:1011A00021F4904101612068416921F02A014161E7
:1011B0002068C16841F40051C160E563202084F8D3
:1011C000390084F83A00002070BD000010B50068B6
:1011D000114986B088421DD11048816941F480418F
:1011E000816180690E4C00F4804004904FF40070DF
:1011F0000090022001900320039069462046FFF7EB
:101200008BF800212015CDE90001029169462046A6
:10121000FFF782F806B010BD003801400010024010
:10122000000801402DE9F843044690F83A00994639
:1012300016460D4620284FD195B18EB194F838004E
:10124000012849D0012084F838000027E7632220D4
:1012500084F83A00FFF75AF9A6858046E68531E022
:101260000120BDE8F883E08D401EE085A06843467C
:10127000B0F5805F4FF000024FF020012046CDF81E
:10128000009004D000F0E0FB98B10320E9E700F003
:10129000DBFB0028F9D1206900282068406803D0D2
:1012A000C1B225F8011B0DE0C0F3080125F8021BAF
:1012B00008E0206900282068406801D000F07F0025
:1012C00005F8010BE08D0028CDD1202084F83A00EC
:1012D00084F838700020C4E70220C2E72DE9F84303
:1012E000044690F839001F4616460D46202850D176
:1012F000A5B19EB194F8380001284AD0012084F8A5
:1013000038004FF00008C4F83C80212084F83900F0
:10131000FFF7FCF8A6848146E68426E00120BDE8BC
:10132000F883E08C401EE084A0684B46B0F5805FF7
:101330004FF000024FF080012046009703D000F0EC
:1013400083FBE8B90DE000F07FFBC8B9288821686D
:10135000C0F308004860206908B16D1C05E0AD1CB1
:1013600003E0216815F8010B4860E08C0028D8D113
:101370004B46002240212046009700F065FB08B153
:101380000320CCE7202084F8390084F8388000203E
:10139000C5E70220C3E7FEE710B5012211030748A5
:1013A000FFF7AEF80A240648FFF7EAFB012804D04D
:1013B000641E14F0FF04F6D1002010BD000C0140A3
:1013C000BC00002070B50C4E04464FF4805500223E
:1013D00029463046FFF794F8032000F0C3F9204671
:1013E00000F0C0F900F0B2F9044601222946304667
:1013F000FFF786F8204670BD000C014070B58021D3
:101400000F2000F023F80A2404250E20FFF7DAFF4E
:10141000B5EB501F01D1012070BD641E14F0FF0414
:10142000F3D1002070BD10B500210F2000F00EF8A0
:101430000A240E20FFF7C6FF400905D0641E14F0F1
:10144000FF04F6D1002010BD012010BD2DE9F041B0
:101450000C4D0F4606464FF4805400222146284684
:10146000FFF74EF8022000F07DF9304600F07AF9DF
:10147000384600F077F921462846BDE8F0410122C0
:10148000FFF73EB8000C01402DE9F0410E4F9046A9
:101490000C4605464FF48056002231463846FFF789
:1014A0002FF8022000F05EF9284600F05BF9601B7F
:1014B000401CC1B2404600F05FF931463846BDE8F5
:1014C000F0410122FFF71CB8000C014030B587B095
:1014D0001422124902A8FEF793FE002102A800F090
:1014E00025FB0F4C0023251D20600120CDE90005C0
:1014F00080220CA1114801F03FFA0020CDE900053F
:10150000034680220EA1154801F036FA002201217F
:10151000092001F02DF8A06007B030BD9C2C000818
:101520000400002053656E642061206D6573736153
:10153000676520746F20555341525400A52300085D
:10154000526563696576652061206D6573736167B7
:101550006520746F205553415254000065230008E4
:101560002DE9F043254885B0816941F0040181618E
:10157000816901F004010491816941F008018161F0
:10158000816901F008010491816941F010018161D4
:1015900080691B4F00F01000049000221021384693
:1015A000FEF7AEFFDFF85C80BE14002231464046F5
:1015B000FEF7A6FFDFF85090002280214846FEF794
:1015C0009FFF10200124CDE9000402256946039500
:1015D0003846FEF7A1FECDE9006469464046039512
:1015E000FEF79AFE8020CDE900046946039548463F
:1015F000FEF792FE05B0BDE8F08300000010024047
:1016000000080140000C014000100140104810B5D6
:101610000E4901604FF48271416000218160C16018
:101620004FF400720161C0E90512C16101624162BB
:1016300081620A21C162FFF7A6FA002805D0BDE841
:101640001040502103A000F032BA10BD003001401C
:10165000BC0000202E2E2F5372632F7370692E63EF
:1016600000000000104810B50E4901604FF482716F
:10167000416000218160C1604FF400720161C0E9E6
:101680000512C1610162416281620A21C162FFF7F4
:101690007AFA002805D0BDE81040662103A000F0CA
:1016A00006BA10BD00380040140100202E2E2F5322
:1016B00072632F7370692E63000000000D4810B52F
:1016C0000B4901604FF416514160002181600C22EA
:1016D000C160C0E904128161C161FFF745FD0028C6
:1016E00005D0BDE810404C2103A000F0E0B910BDCA
:1016F000003801407C0000202E2E2F5372632F757E
:10170000736172742E630000FEE770470907090ECB
:10171000002806DA00F00F0000F1E02080F8141D28
:10172000704700F1E02080F80014704738B50B4690
:10173000009204460022802100F026F8002804D000
:10174000606D40F020006065032038BD08B50A23B5
:10175000012269460248FFF79FFA9DF8000008BD84
:10176000BC00002001B50A23012269460148FFF7A9
:101770003BFB08BDBC0000200A4601460A23014885
:10178000FFF732BBBC0000202DE9F0411D46174693
:101790000E460446DDF8188035E0681C33D02DB1C4
:1017A000FEF7B4FEA0EB0800A8422CD320684168E5
:1017B00021F0E00141606068B0F5827F0BD1A06844
:1017C000B0F5004F02D0B0F5806F04D120680168F9
:1017D00021F040010160A06AB0F5005F0AD12068E5
:1017E00001684DF6FF72114001602068016841F404
:1017F00000510160012084F85100002084F850005D
:101800000320BDE8F0812068806836EA000004D03B
:101810000020B842C1D10020F3E70120F9E7012000
:1018200000F06EF9FBE710B5FEF776FEBDE810405C
:1018300000F072B910B590B0022000900120049021
:1018400010200024059007946846FFF717F800B1B0
:10185000FEE70F20CDE90A040C940D9400210AA89C
:101860000E94FEF705FF00B1FEE7FEF7ABFF4FF465
:101870007A71B0FBF1F0FFF763FC0420FFF754FC32
:1018800000220F21501EFEF7C1FE10B010BD000057
:101890000D48016841F00101016041680B4A1140A7
:1018A000416001680A4A11400160016821F4802109
:1018B0000160416821F4FE0141604FF41F01816025
:1018C0000449C00308607047001002400000FFF8A0
:1018D000FFFFF6FE08ED00E02DE9F0410446006848
:1018E0000169E26821F44051114301612169A06856
:1018F0000843616908432168CA6841F20C639A434E
:101900000243CA6020684169A26921F44071114311
:1019100041614C4920686425322688423CD1FEF75B
:1019200067FF00EBC00101EB001061688900B0FBAC
:10193000F1F7FEF75DFF00EBC00101EB00106168FD
:10194000B0468900B0FBF1F0B0FBF5F06FF0180184
:10195000484307EB800106EB0110B0FBF5F000F007
:10196000F006FEF745FF00EBC00101EB00106168D7
:101970008900B0FBF1F0B0FBF5F006EB0016FEF7C6
:1019800037FF00EBC00101EB001061688900B0FB7C
:10199000F1F7FEF72DFF3BE0FEF71AFF00EBC00169
:1019A00001EB001061688900B0FBF1F7FEF710FF52
:1019B00000EBC00101EB00106168B0468900B0FB8C
:1019C000F1F0B0FBF5F06FF01801484307EB800130
:1019D00006EB0110B0FBF5F000F0F006FEF7F8FEA4
:1019E00000EBC00101EB001061688900B0FBF1F071
:1019F000B0FBF5F006EB0016FEF7EAFE00EBC001C7
:101A000001EB001061688900B0FBF1F7FEF7E0FE22
:101A100000EBC00101EB001061688900B0FBF1F040
:101A2000B0FBF5F06FF01801484307EB800108EBBD
:101A30000110B0FBF5F0216800F00F003044886021
:101A4000BDE8F081003801402DE9F0419846174685
:101A50000E460446069D1DE0681C1BD02DB1FEF706
:101A600055FDA0EB0800A84214D92068C16821F4F4
:101A7000D071C1602068416921F0010141612020DD
:101A800084F8390084F83A00002084F838000320F4
:101A9000BDE8F0812068006836EA000004D000202C
:101AA000B842D9D00020F3E70120F9E7FEE7FEE7CE
:101AB00002E008C8121F08C1002AFAD17047704717
:101AC000002001E001C1121F002AFBD17047FEF780
:101AD0002BFDFFF7AFFEFFF743FDFFF7EFFDFFF72D
:101AE00095FDFFF7BFFDFEF7B0FBFFF7EFFC00F041
:101AF0000EF8FEE701460020842900D0C81C70477C
:101B000010B500B9012000F0A7FB002010BD10B5F2
:101B100000F074FC002010BD10B500F059FF012842
:101B200003D0BDE8104000F00DBD10BD3EB5044629
:101B30000D46B0F90800FFF7DDFF02A9CDE900016D
:101B4000208A2B4682B2D4E9001000F015FF01284C
:101B500001D000203EBD02983EBD00002DE9F041BD
:101B6000184C0F460546E6682068001D00F0ACFAE8
:101B700038B9206890F82C100120884021698143F1
:101B80002161681C07D137B12168BDE8F0410E48DA
:101B9000091D00F0E3BA20683544B542456021686C
:101BA00005D2A06BBDE8F041091D00F0BFBA606B23
:101BB000091D00F0BBFAA06A854200D2A562BDE80B
:101BC000F081000040000020480E00202DE9F04187
:101BD000054600F0CFFA2E4CA068401CA06020689B
:101BE0002C4F10B1606940B32DE02560A06801283A
:101BF00029D1002606EB860007EB800000F088FA6A
:101C0000761C072EF6D323488C3000F081FA214849
:101C1000A03000F07DFA1F48B43000F079FA1D487A
:101C2000C83000F075FA1B48DC3000F071FA194832
:101C30008C3060631430A06305E02068E96AC06AF4
:101C4000884200D82560606A401C6062E96A012011
:101C5000226988401043206101EB810007EB80007E
:101C6000291D00F07BFA00F0A5FA606900280CD06D
:101C70002068E96AC06A884207D207494FF080505D
:101C80000860BFF34F8FBFF36F8FBDE8F081000096
:101C9000400000206C0D002004ED00E070B5114EF6
:101CA000114C17E000F0DEFB3068B8B100F088FF9F
:101CB00000F060FAF068C568281D00F005FAA06819
:101CC000401EA0606068401E606000F073FA284605
:101CD00000F055F860680028E4D170BD00F070FF96
:101CE000F8E70000340E00204000002030B4026C01
:101CF0000B46002A0BD0C1681144C1604468A14260
:101D000001D30168C16030BC1846FEF779BA30BC17
:101D100070472DE9F041856B174604460026026C9A
:101D200082B1C7B1E068FEF76BFAE168206C091A6E
:101D3000E1602268914202D26168081AE060022FD5
:101D400016D017E02068A8B9606800F0B3FE064618
:101D5000002060600EE0A068FEF752FA216CA068D7
:101D60000844A0606168884204D32068A06001E054
:101D700005B16D1E6D1CA5633046BDE8F08110B540
:101D80000446006B00F02AFA2046BDE8104000F03F
:101D900025BA000010484FF44061420706D0C01D2C
:101DA0000D4920F00700411AC1F540610B4A00239C
:101DB0000144C2E900030839103A21F0070111601B
:101DC0004B600B600B1AC0E9001393604FF00040AA
:101DD0005360D060704700006C0100202C00002090
:101DE000074C4FF08056074DFFF758FF2068012839
:101DF000FAD92E60BFF34F8FBFF36F8FF4E7000067
:101E00006C0D002004ED00E02DE9F0479A46DDE975
:101E1000098481466FF00303206B03EB82021044B8
:101E2000089D20F00706700707D0502080F3118826
:101E3000BFF34F8FBFF36F8FFEE723180A5C83F861
:101E400034200A5C12B1401C1028F6D3002784F815
:101E50004370072D00D30625E562C4E91157201D04
:101E600000F061F904F1180000F05DF92461C5F19A
:101E700007006462A061E76484F8507052464946E6
:101E8000304600F00FF92060B8F1000F01D0C8F81B
:101E90000040BDE8F087000030B5114900E0114670
:101EA0000A688242FBD34B685C18844203D14068C5
:101EB00018444860084643681C18944209D1084CED
:101EC000103C2468A24209D052681A4442600A6851
:101ED00012680260814200D0086030BD0460F9E7FA
:101EE0002C00002010B5044600F044F9A06B28B186
:101EF0005FF0000400F05EF9204610BD0124F9E710
:101F00000648416B096829B1416BC968C9684968CD
:101F1000816270474FF0FF31FAE700004000002077
:101F200008484068401C4FF0500080F3118804D0EE
:101F3000BFF34F8FBFF36F8FFEE7BFF34F8FBFF33A
:101F40006F8FFEE7340000202DE9F041044600F0D9
:101F500011F994F9455004F1240609E0606A48B18A
:101F6000304600F0F3FD08B100F09CF96D1E6DB233
:101F7000002DF3DC4FF0FF3684F8456000F01AF9CD
:101F800000F0F8F894F9445004F1100709E02069D2
:101F900048B1384600F0DAFD08B100F083F96D1E53
:101FA0006DB2002DF3DC84F84460BDE8F04100F030
:101FB00001B900002DE9F0410546002700F052FA72
:101FC000314E306808B9FFF7E5FEF06805424BD1A5
:101FD000C5B3083568070ED005F00700C0F108004A
:101FE0000544680707D0502080F31188BFF34F8F56
:101FF000BFF36F8FFEE72DB37068854234D8224857
:10200000103001460C6801E020460C466168A94288
:1020100002D221680029F7D131688C4224D00768A8
:102020002168016060680837411B10290FD96019C9
:10203000420708D0502080F31188BFF34F8FBFF3C1
:102040006F8FFEE710E041606560FFF725FF616874
:102050007068401A7060B268904200D2B060F06858
:1020600001430020C4E9000100F0AAFD780707D071
:10207000502080F31188BFF34F8FBFF36F8FFEE7BF
:102080003846BDE8F08100001C00002004490868C3
:1020900018B10868826C521C82640868704700009E
:1020A0004000002010B5031F4FF080741C601B1F00
:1020B00021F001011960191F024B0B6014394038DF
:1020C0000A6010BD211F0008D0E9013201699A6041
:1020D000D0E901235A604A68824201D182684A608D
:1020E000002202610868401E0860704710B50400B5
:1020F00006D000F03FF8A46B00F05CF8204610BD5D
:10210000502080F31188BFF34F8FBFF36F8FFEE72E
:1021100000F108014FF0FF32C0E90112C160016116
:1021200000210160704700210161704730B50B68E4
:102130005A1C02D000F1080202E0026904E02246C3
:10214000546825689D42FAD953684B6099608A604B
:10215000516008610168491C016030BD42684A60F5
:1021600093688B6093685960916008610168491CAD
:1021700001607047502080F31188BFF34F8FBFF389
:102180006F8F0A494868401C486001280CD10848F4
:10219000006810F0FF0F07D0502080F31188BFF3C4
:1021A0004F8FBFF36F8FFEE77047000034000020B1
:1021B00004ED00E00849486828B1401E486001D19C
:1021C00080F311887047502080F31188BFF34F8F40
:1021D000BFF36F8FFEE700003400002070B50028C9
:1021E00027D0144DA0F108046168E868014207D1C6
:1021F000502080F31188BFF34F8FBFF36F8FFEE73E
:1022000022683AB1502080F31188BFF34F8FBFF39B
:102210006F8FFEE78143616000F024F960686968B0
:10222000084468602046FFF737FEBDE8704000F0C4
:10223000C7BC70BD1C00002006484FF47A710068CE
:10224000B0FBF1F14FF0E020491E4161072101612F
:10225000704700000000002010B5020014D00F48A5
:10226000006B38B1502080F31188BFF34F8FBFF35C
:102270006F8FFEE700F0F6F800211046FFF76EFCC6
:1022800000F09EFC002807D105494FF080500860FF
:10229000BFF34F8FBFF36F8F10BD000040000020D1
:1022A00004ED00E001490120C861704740000020B2
:1022B00010B50C4650B1094909681831FFF736FFCF
:1022C0002046BDE810400121FFF748BC502080F3B4
:1022D0001188BFF34F8FBFF36F8FFEE740000020E0
:1022E00070B5040039D01D4DE06A2968C96A88427A
:1022F00033D2A069002804DB2868C06AC0F1070057
:10230000A061E16A164E01EB8101606906EB810173
:1023100088421FD1201DFFF7D7FE012150B9E06A86
:1023200000EB800256F8222022B92A6901FA00F057
:1023300082432A612868C06AE0622A6981401143A9
:10234000296100EB800006EB8000211DBDE8704094
:10235000FFF704BF2868C06AE06270BD400000203B
:102360006C0D002008B50C4C0C4E4FF4FA774FF072
:1023700080553B46012269460948FEF753FF00237A
:102380001A466946A06800F011FA3560BFF34F8F16
:10239000BFF36F8FEDE700000400002004ED00E0C4
:1023A0007C00002008B50A4C4FF4FA75A068FFF7CE
:1023B0009DFE002364226946A06800F0FDF8012814
:1023C000F4D12B46012269460248FEF787FFEDE76C
:1023D000040000207C00002028B107490A6A02603E
:1023E000C96841607047502080F31188BFF34F8F58
:1023F000BFF36F8FFEE70000400000201CB51548BA
:102400000024CDE900402346802213A1144800F0A7
:10241000B3FA012809D0401C1AD1502080F311884A
:10242000BFF34F8FBFF36F8FFEE7502080F311880B
:10243000BFF34F8FBFF36F8F06484FF0FF312C383B
:10244000816201214161C460BDE81C4000F040B8D8
:102450001CBD00006C00002049444C4500000000F9
:10246000E11D00080248016B491C01637047000030
:10247000400000201448016B11B10121C161704777
:102480000021C1610169B1FA81F1C1F11F0101EBC4
:1024900081020E4951F822306BB101EB820101F14A
:1024A00008034A6852684A609A4201D152684A60F9
:1024B000D16801607047502080F31188BFF34F8FBF
:1024C000BFF36F8FFEE70000400000206C0D00207E
:1024D0001CB5194908780190FF20087008788DF81C
:1024E00000009DF80000154A00F050001070072011
:1024F000906005E09DF800305B008DF80030401ED4
:102500009DF800301B06F5D4000200F4E0609060F6
:10251000019808700A48016841F47001016001687F
:1025200041F070410160FFF787FE00205060FDF729
:102530001BFE00201CBD000000E400E03400002071
:1025400020ED00E010B5502080F31188BFF34F8FCD
:10255000BFF36F8F00F04AFA18B104494FF0805072
:102560000860002080F3118810BD000004ED00E039
:1025700070B50E46050013D0D6B105FB06F0483005
:10258000FFF718FD040009D004F1480120468EB180
:102590000160C0E90F56012100F0C4F8204670BD6B
:1025A000502080F31188BFF34F8FBFF36F8FFEE78A
:1025B0000020E4E70060ECE72DE9FF4F002683B040
:1025C0009B468A46040003D0BAF1000F08D011E000
:1025D000502080F31188BFF34F8FBFF36F8FFEE75A
:1025E000206C38B1502080F31188BFF34F8FBFF3B8
:1025F0006F8FFEE700F0ECF9DFF824814FF000095F
:102600004FF0805748B9059838B1502080F31188B1
:10261000BFF34F8FBFF36F8FFEE7FFF7ABFDA56BE7
:1026200045B351462046E668FFF760FBBBF1000F5B
:1026300013D0E660606A50B104F1240000F086FA1D
:1026400028B1C8F80070BFF34F8FBFF36F8FFFF74B
:10265000B1FD012007B0BDE8F08F6D1EA5632068B5
:1026600010B9FFF713FD606020690028EFD004F176
:102670001000E3E7059808B11EB106E0FFF79AFDE8
:1026800027E06846FFF7A8FE0126FFF793FDFFF756
:10269000E9FEFFF76FFD94F94400401C01D184F876
:1026A000449094F94500401C01D184F84590FFF70F
:1026B00081FD05A9684600F029F9002820460AD0C6
:1026C000FFF742FC00F07CFA2046FFF70BFC0028E5
:1026D000A3D00020BEE7FFF705FCD8B1206830B9D1
:1026E000FFF748FD6068FFF7FBFDFFF763FD04F1AE
:1026F00024000599FFF7DCFD2046FFF725FC00F0DC
:102700005FFA002889D1C8F80070BFF34F8FBFF37C
:102710006F8F82E72046FFF717FC00F051FA7CE745
:1027200004ED00E070B50D46040025D0FFF722FD52
:10273000D4E90F20216802FB001161600021A16330
:102740002168A1600A46D4E90F01401E00FB012167
:10275000E16021464FF0FF3001F8440F487004F16A
:1027600010008DB1FFF7D4FC04F12400FFF7D0FC7A
:10277000FFF720FD012070BD502080F31188BFF3CA
:102780004F8FBFF36F8FFEE721690029F0D000F073
:10279000DDF90028ECD004494FF080500860BFF309
:1027A0004F8FBFF36F8FE3E704ED00E02DE9FF47A4
:1027B00082B01D468A464FF00008040003D0BAF1EB
:1027C000000F08D011E0502080F31188BFF34F8F25
:1027D000BFF36F8FFEE7206C38B1502080F3118873
:1027E000BFF34F8FBFF36F8FFEE7022D0AD1E06B6F
:1027F000012807D0502080F31188BFF34F8FBFF31B
:102800006F8FFEE700F0E4F83F4F4FF000094FF004
:10281000805648B9049838B1502080F31188BFF32E
:102820004F8FBFF36F8FFEE7FFF7A4FCA06BE16B48
:10283000884207D3022D05D00498D0B1B8F1000F1B
:102840001AD01EE02A4651462046FFF762FA616A16
:1028500019B104F1240000F079F920B13E60BFF312
:102860004F8FBFF36F8FFFF7A5FC012006B0BDE8C7
:10287000F087FFF79FFC22E06846FFF7ADFD4FF0C1
:102880000108FFF797FCFFF7EDFDFFF773FC94F9E4
:102890004400401C01D184F8449094F94500401C48
:1028A00001D184F84590FFF785FC04A9684600F043
:1028B0002DF830B12046FFF747FB00F081F90020EA
:1028C000D4E7FFF757FCA06BE16B884213D1FFF709
:1028D00071FC04F110000499FFF7EAFC2046FFF7B1
:1028E00033FB00F06DF900289ED13E60BFF34F8F9F
:1028F000BFF36F8F98E7FFF75DFC2046FFF724FBDF
:1029000000F05EF990E7000004ED00E070B50D46C0
:10291000040019D005B3FFF72DFC164AD1682868CA
:10292000431C0FD02368126A934202D062688A4225
:102930001AD96268891A814216D2401A2860204644
:10294000FFF74AFD002410E0502080F31188BFF308
:102950004F8FBFF36F8FFEE7502080F31188BFF3D6
:102960004F8FBFF36F8FFEE70124FFF723FC204654
:1029700070BD0000400000202DE9FF5F8346DDE9C7
:102980000E87994616468A469000FFF713FB05000E
:102990001AD05420FFF70EFB040012D0256300214B
:1029A000CDE90241CDE900874B46324651465846B3
:1029B000FFF72AFA2046FFF709F9012004B0BDE825
:1029C000F09F2846FFF70AFC4FF0FF30F6E70000C3
:1029D0000548416919B1006B18B10020704701200A
:1029E0007047022070470000400000202DE9F041B0
:1029F0002E4C0027206B40B1A069401CA061E0690B
:102A000000B101273846BDE8F081E668761CE66033
:102A100013D1606B006838B1502080F31188BFF388
:102A20004F8FBFF36F8FFEE7606BA16B6163A06395
:102A3000206A401C2062FFF763FAA06ADFF870800A
:102A4000864209D3606B006880B1606BC068C5685E
:102A5000686886420DD2A0622068C06A00EB8001DF
:102A600058F821000128CAD90127C8E74FF0FF30E4
:102A7000F1E7281DFFF728FBA86A18B105F1180037
:102A8000FFF722FBE86A012122698140114321619D
:102A900000EB800108EB8100291DFFF75FFBE86A6E
:102AA0002168C96A8842CDD30127CBE740000020C6
:102AB0006C0D002070B504004FF0000140D0214D96
:102AC0002868844207D0502080F31188BFF34F8FCD
:102AD000BFF36F8FFEE7A06C38B1401EA064636C3B
:102AE000E26A9A422CD040B12AE0502080F311884B
:102AF000BFF34F8FBFF36F8FFEE7201DFFF7E4FAA0
:102B0000114A012150B9E06A00EB800352F82330EA
:102B100023B92B6901FA00F083432B61606CE062FA
:102B2000C0F10700A061E06A2B6981401943296167
:102B300000EB800002EB8000211DFFF70FFB01215D
:102B4000084670BD400000206C0D00202DE9F041CA
:102B5000C068C468ACB104F118000746FFF7B4FAC6
:102B6000154D286B0126A0B139461448FFF7F6FA37
:102B7000E06A2968C96A88421CD90120EE61BDE873
:102B8000F081502080F31188BFF34F8FBFF36F8F18
:102B9000FEE7201DFFF798FAE16A2A6906FA01F0BC
:102BA0001043286101EB81000449B43901EB800036
:102BB000211DDBE70020E2E740000020200E00207E
:102BC0002DE9F0472C4D00242746286B38B1FFF73C
:102BD000D1FA286B401E2863286B40B146E0502094
:102BE00080F31188BFF34F8FBFF36F8FFEE7A968A3
:102BF000224E0120D1B3A6F1B40980463068E8B175
:102C0000F068C46804F11800FFF75EFA201DFFF7B2
:102C10005BFAE06A2A6908FA00F11143296100EBC6
:102C2000800109EB8100211DFFF798FAE06A29680D
:102C3000C96A8842E2D3C5F81C80DFE70CB1FFF710
:102C40005FF9AC6944B14646FFF7D0FE00B1EE61D2
:102C5000641EF9D10020A861E86938B1084901274C
:102C600038070860BFF34F8FBFF36F8FFFF7A2FAEB
:102C70003846BDE8F087000040000020200E00200C
:102C800004ED00E000000000000000000102030469
:102C9000060708090000000001020304B02C000828
:102CA0001F18000800000000000000008000000065
:102CB00064656661756C745461736B00DC2C00088C
:102CC000000000207C000000B01A0008582D000809
:102CD0007C000020E4110000C01A000800A24A0491
:102CE00000000000000000000000000001000000E3
:102CF00010000000000000000000000000000000C4
:102D000000000000000000000000000000000000C3
:102D100000000000AAAAAAAA00000000000000000B
:102D200000000000000000000000000000000000A3
:102D30000000000000000000000000000000000093
:102D40000000000000000000000000000000000083
:082D500000000000000000007B
:0400000508000131BD
:00000001FF
